{
  "contractName": "Marketplace",
  "abi": [
    {
      "inputs": [],
      "stateMutability": "nonpayable",
      "type": "constructor"
    },
    {
      "anonymous": false,
      "inputs": [
        {
          "indexed": false,
          "internalType": "address",
          "name": "nftContract",
          "type": "address"
        },
        {
          "indexed": false,
          "internalType": "uint256",
          "name": "tokenId",
          "type": "uint256"
        },
        {
          "indexed": false,
          "internalType": "address",
          "name": "seller",
          "type": "address"
        },
        {
          "indexed": false,
          "internalType": "address",
          "name": "owner",
          "type": "address"
        },
        {
          "indexed": false,
          "internalType": "uint256",
          "name": "price",
          "type": "uint256"
        }
      ],
      "name": "NFTListed",
      "type": "event"
    },
    {
      "anonymous": false,
      "inputs": [
        {
          "indexed": false,
          "internalType": "address",
          "name": "nftContract",
          "type": "address"
        },
        {
          "indexed": false,
          "internalType": "uint256",
          "name": "tokenId",
          "type": "uint256"
        },
        {
          "indexed": false,
          "internalType": "address",
          "name": "seller",
          "type": "address"
        },
        {
          "indexed": false,
          "internalType": "address",
          "name": "owner",
          "type": "address"
        },
        {
          "indexed": false,
          "internalType": "uint256",
          "name": "price",
          "type": "uint256"
        }
      ],
      "name": "NFTSold",
      "type": "event"
    },
    {
      "inputs": [],
      "name": "LISTING_FEE",
      "outputs": [
        {
          "internalType": "uint256",
          "name": "",
          "type": "uint256"
        }
      ],
      "stateMutability": "view",
      "type": "function",
      "constant": true
    },
    {
      "inputs": [],
      "name": "currentTime",
      "outputs": [
        {
          "internalType": "uint256",
          "name": "",
          "type": "uint256"
        }
      ],
      "stateMutability": "view",
      "type": "function",
      "constant": true
    },
    {
      "inputs": [],
      "name": "prompt",
      "outputs": [
        {
          "internalType": "string",
          "name": "",
          "type": "string"
        }
      ],
      "stateMutability": "view",
      "type": "function",
      "constant": true
    },
    {
      "inputs": [],
      "name": "time",
      "outputs": [
        {
          "internalType": "uint256",
          "name": "",
          "type": "uint256"
        }
      ],
      "stateMutability": "view",
      "type": "function",
      "constant": true
    },
    {
      "inputs": [],
      "name": "getPrompt",
      "outputs": [
        {
          "internalType": "string",
          "name": "",
          "type": "string"
        }
      ],
      "stateMutability": "view",
      "type": "function",
      "constant": true
    },
    {
      "inputs": [],
      "name": "getTimeLeft",
      "outputs": [
        {
          "internalType": "uint256",
          "name": "",
          "type": "uint256"
        }
      ],
      "stateMutability": "view",
      "type": "function",
      "constant": true
    },
    {
      "inputs": [
        {
          "internalType": "address",
          "name": "_nftContract",
          "type": "address"
        },
        {
          "internalType": "uint256",
          "name": "_tokenId",
          "type": "uint256"
        },
        {
          "internalType": "uint256",
          "name": "_price",
          "type": "uint256"
        }
      ],
      "name": "listNft",
      "outputs": [],
      "stateMutability": "payable",
      "type": "function",
      "payable": true
    },
    {
      "inputs": [
        {
          "internalType": "address",
          "name": "_nftContract",
          "type": "address"
        },
        {
          "internalType": "uint256",
          "name": "_tokenId",
          "type": "uint256"
        },
        {
          "internalType": "uint256",
          "name": "_price",
          "type": "uint256"
        }
      ],
      "name": "resellNft",
      "outputs": [],
      "stateMutability": "payable",
      "type": "function",
      "payable": true
    },
    {
      "inputs": [
        {
          "internalType": "address",
          "name": "_nftContract",
          "type": "address"
        },
        {
          "internalType": "uint256",
          "name": "_tokenId",
          "type": "uint256"
        }
      ],
      "name": "buyNft",
      "outputs": [],
      "stateMutability": "payable",
      "type": "function",
      "payable": true
    },
    {
      "inputs": [],
      "name": "getListingFee",
      "outputs": [
        {
          "internalType": "uint256",
          "name": "",
          "type": "uint256"
        }
      ],
      "stateMutability": "view",
      "type": "function",
      "constant": true
    },
    {
      "inputs": [],
      "name": "getListedNfts",
      "outputs": [
        {
          "components": [
            {
              "internalType": "address",
              "name": "nftContract",
              "type": "address"
            },
            {
              "internalType": "uint256",
              "name": "tokenId",
              "type": "uint256"
            },
            {
              "internalType": "address payable",
              "name": "seller",
              "type": "address"
            },
            {
              "internalType": "address payable",
              "name": "owner",
              "type": "address"
            },
            {
              "internalType": "uint256",
              "name": "price",
              "type": "uint256"
            },
            {
              "internalType": "bool",
              "name": "listed",
              "type": "bool"
            }
          ],
          "internalType": "struct Marketplace.NFT[]",
          "name": "",
          "type": "tuple[]"
        }
      ],
      "stateMutability": "view",
      "type": "function",
      "constant": true
    },
    {
      "inputs": [],
      "name": "getMyNfts",
      "outputs": [
        {
          "components": [
            {
              "internalType": "address",
              "name": "nftContract",
              "type": "address"
            },
            {
              "internalType": "uint256",
              "name": "tokenId",
              "type": "uint256"
            },
            {
              "internalType": "address payable",
              "name": "seller",
              "type": "address"
            },
            {
              "internalType": "address payable",
              "name": "owner",
              "type": "address"
            },
            {
              "internalType": "uint256",
              "name": "price",
              "type": "uint256"
            },
            {
              "internalType": "bool",
              "name": "listed",
              "type": "bool"
            }
          ],
          "internalType": "struct Marketplace.NFT[]",
          "name": "",
          "type": "tuple[]"
        }
      ],
      "stateMutability": "view",
      "type": "function",
      "constant": true
    },
    {
      "inputs": [],
      "name": "getMyListedNfts",
      "outputs": [
        {
          "components": [
            {
              "internalType": "address",
              "name": "nftContract",
              "type": "address"
            },
            {
              "internalType": "uint256",
              "name": "tokenId",
              "type": "uint256"
            },
            {
              "internalType": "address payable",
              "name": "seller",
              "type": "address"
            },
            {
              "internalType": "address payable",
              "name": "owner",
              "type": "address"
            },
            {
              "internalType": "uint256",
              "name": "price",
              "type": "uint256"
            },
            {
              "internalType": "bool",
              "name": "listed",
              "type": "bool"
            }
          ],
          "internalType": "struct Marketplace.NFT[]",
          "name": "",
          "type": "tuple[]"
        }
      ],
      "stateMutability": "view",
      "type": "function",
      "constant": true
    }
  ],
  "bytecode": "0x6080604052655af3107a40006003556040518060400160405280601281526020017f68656c6c6f20746f2074686520776f726c640000000000000000000000000000815250600690816200005491906200034b565b5062015180600755426008553480156200006d57600080fd5b50600160008190555073944afe2af5c3d5637f1f3cdb4a130f272de73420600460006101000a81548173ffffffffffffffffffffffffffffffffffffffff021916908373ffffffffffffffffffffffffffffffffffffffff16021790555062000432565b600081519050919050565b7f4e487b7100000000000000000000000000000000000000000000000000000000600052604160045260246000fd5b7f4e487b7100000000000000000000000000000000000000000000000000000000600052602260045260246000fd5b600060028204905060018216806200015357607f821691505b6020821081036200016957620001686200010b565b5b50919050565b60008190508160005260206000209050919050565b60006020601f8301049050919050565b600082821b905092915050565b600060088302620001d37fffffffffffffffffffffffffffffffffffffffffffffffffffffffffffffffff8262000194565b620001df868362000194565b95508019841693508086168417925050509392505050565b6000819050919050565b6000819050919050565b60006200022c620002266200022084620001f7565b62000201565b620001f7565b9050919050565b6000819050919050565b62000248836200020b565b62000260620002578262000233565b848454620001a1565b825550505050565b600090565b6200027762000268565b620002848184846200023d565b505050565b5b81811015620002ac57620002a06000826200026d565b6001810190506200028a565b5050565b601f821115620002fb57620002c5816200016f565b620002d08462000184565b81016020851015620002e0578190505b620002f8620002ef8562000184565b83018262000289565b50505b505050565b600082821c905092915050565b6000620003206000198460080262000300565b1980831691505092915050565b60006200033b83836200030d565b9150826002028217905092915050565b6200035682620000d1565b67ffffffffffffffff811115620003725762000371620000dc565b5b6200037e82546200013a565b6200038b828285620002b0565b600060209050601f831160018114620003c35760008415620003ae578287015190505b620003ba85826200032d565b8655506200042a565b601f198416620003d3866200016f565b60005b82811015620003fd57848901518255600182019150602085019450602081019050620003d6565b868310156200041d578489015162000419601f8916826200030d565b8355505b6001600288020188555050505b505050505050565b611f5180620004426000396000f3fe6080604052600436106100c25760003560e01c80637c65d7111161007f578063c7e284b811610059578063c7e284b81461022c578063c922b17c14610257578063d18e81b314610273578063fc5be82f1461029e576100c2565b80637c65d711146101ab5780638d6cb3fb146101d6578063b8fe6abe14610201576100c2565b8063047b07bf146100c757806316ada547146100f25780631f4cc4db1461011d5780632b86ae381461014857806334f5b624146101735780634ddf4f8f1461018f575b600080fd5b3480156100d357600080fd5b506100dc6102c9565b6040516100e991906117cc565b60405180910390f35b3480156100fe57600080fd5b506101076105fc565b60405161011491906117fd565b60405180910390f35b34801561012957600080fd5b50610132610602565b60405161013f91906117cc565b60405180910390f35b34801561015457600080fd5b5061015d6109a7565b60405161016a91906117fd565b60405180910390f35b61018d60048036038101906101889190611875565b6109ad565b005b6101a960048036038101906101a491906118c8565b610b82565b005b3480156101b757600080fd5b506101c0610e15565b6040516101cd9190611998565b60405180910390f35b3480156101e257600080fd5b506101eb610ea3565b6040516101f891906117cc565b60405180910390f35b34801561020d57600080fd5b5061021661110b565b60405161022391906117fd565b60405180910390f35b34801561023857600080fd5b50610241611115565b60405161024e91906117fd565b60405180910390f35b610271600480360381019061026c9190611875565b61113c565b005b34801561027f57600080fd5b50610288611421565b60405161029591906117fd565b60405180910390f35b3480156102aa57600080fd5b506102b3611427565b6040516102c09190611998565b60405180910390f35b606060006102d760026114b9565b90506000805b8281101561037c573373ffffffffffffffffffffffffffffffffffffffff166005600060018461030d91906119e9565b815260200190815260200160002060030160009054906101000a900473ffffffffffffffffffffffffffffffffffffffff1673ffffffffffffffffffffffffffffffffffffffff160361036957818061036590611a1d565b9250505b808061037490611a1d565b9150506102dd565b5060008167ffffffffffffffff81111561039957610398611a65565b5b6040519080825280602002602001820160405280156103d257816020015b6103bf611592565b8152602001906001900390816103b75790505b5090506000805b848110156105f1573373ffffffffffffffffffffffffffffffffffffffff166005600060018461040991906119e9565b815260200190815260200160002060030160009054906101000a900473ffffffffffffffffffffffffffffffffffffffff1673ffffffffffffffffffffffffffffffffffffffff16036105de576005600060018361046791906119e9565b81526020019081526020016000206040518060c00160405290816000820160009054906101000a900473ffffffffffffffffffffffffffffffffffffffff1673ffffffffffffffffffffffffffffffffffffffff1673ffffffffffffffffffffffffffffffffffffffff168152602001600182015481526020016002820160009054906101000a900473ffffffffffffffffffffffffffffffffffffffff1673ffffffffffffffffffffffffffffffffffffffff1673ffffffffffffffffffffffffffffffffffffffff1681526020016003820160009054906101000a900473ffffffffffffffffffffffffffffffffffffffff1673ffffffffffffffffffffffffffffffffffffffff1673ffffffffffffffffffffffffffffffffffffffff168152602001600482015481526020016005820160009054906101000a900460ff1615151515815250508383815181106105c4576105c3611a94565b5b602002602001018190525081806105da90611a1d565b9250505b80806105e990611a1d565b9150506103d9565b508194505050505090565b60075481565b6060600061061060026114b9565b90506000805b828110156106ee573373ffffffffffffffffffffffffffffffffffffffff166005600060018461064691906119e9565b815260200190815260200160002060020160009054906101000a900473ffffffffffffffffffffffffffffffffffffffff1673ffffffffffffffffffffffffffffffffffffffff161480156106c75750600560006001836106a791906119e9565b815260200190815260200160002060050160009054906101000a900460ff165b156106db5781806106d790611a1d565b9250505b80806106e690611a1d565b915050610616565b5060008167ffffffffffffffff81111561070b5761070a611a65565b5b60405190808252806020026020018201604052801561074457816020015b610731611592565b8152602001906001900390816107295790505b5090506000805b8481101561099c573373ffffffffffffffffffffffffffffffffffffffff166005600060018461077b91906119e9565b815260200190815260200160002060020160009054906101000a900473ffffffffffffffffffffffffffffffffffffffff1673ffffffffffffffffffffffffffffffffffffffff161480156107fc5750600560006001836107dc91906119e9565b815260200190815260200160002060050160009054906101000a900460ff165b15610989576005600060018361081291906119e9565b81526020019081526020016000206040518060c00160405290816000820160009054906101000a900473ffffffffffffffffffffffffffffffffffffffff1673ffffffffffffffffffffffffffffffffffffffff1673ffffffffffffffffffffffffffffffffffffffff168152602001600182015481526020016002820160009054906101000a900473ffffffffffffffffffffffffffffffffffffffff1673ffffffffffffffffffffffffffffffffffffffff1673ffffffffffffffffffffffffffffffffffffffff1681526020016003820160009054906101000a900473ffffffffffffffffffffffffffffffffffffffff1673ffffffffffffffffffffffffffffffffffffffff1673ffffffffffffffffffffffffffffffffffffffff168152602001600482015481526020016005820160009054906101000a900460ff16151515158152505083838151811061096f5761096e611a94565b5b6020026020010181905250818061098590611a1d565b9250505b808061099490611a1d565b91505061074b565b508194505050505090565b60035481565b6109b56114c7565b60035434146109f9576040517f08c379a00000000000000000000000000000000000000000000000000000000081526004016109f090611b0f565b60405180910390fd5b8273ffffffffffffffffffffffffffffffffffffffff166323b872dd3330856040518463ffffffff1660e01b8152600401610a3693929190611b3e565b600060405180830381600087803b158015610a5057600080fd5b505af1158015610a64573d6000803e3d6000fd5b505050506000600560008481526020019081526020016000209050338160020160006101000a81548173ffffffffffffffffffffffffffffffffffffffff021916908373ffffffffffffffffffffffffffffffffffffffff160217905550308160030160006101000a81548173ffffffffffffffffffffffffffffffffffffffff021916908373ffffffffffffffffffffffffffffffffffffffff16021790555060018160050160006101000a81548160ff021916908315150217905550818160040181905550610b356001611516565b7fa0c6c0d02d86fdacecbaa5fdf5894bab204e31a778250474108540733a9b8d198484333086604051610b6c959493929190611b75565b60405180910390a150610b7d611572565b505050565b610b8a6114c7565b60006005600083815260200190815260200160002090508060040154341015610be8576040517f08c379a0000000000000000000000000000000000000000000000000000000008152600401610bdf90611c3a565b60405180910390fd5b60003390508160020160009054906101000a900473ffffffffffffffffffffffffffffffffffffffff1673ffffffffffffffffffffffffffffffffffffffff166108fc349081150290604051600060405180830381858888f19350505050158015610c57573d6000803e3d6000fd5b508373ffffffffffffffffffffffffffffffffffffffff166323b872dd308385600101546040518463ffffffff1660e01b8152600401610c9993929190611cb9565b600060405180830381600087803b158015610cb357600080fd5b505af1158015610cc7573d6000803e3d6000fd5b50505050600460009054906101000a900473ffffffffffffffffffffffffffffffffffffffff1673ffffffffffffffffffffffffffffffffffffffff166108fc6003549081150290604051600060405180830381858888f19350505050158015610d35573d6000803e3d6000fd5b50808260030160006101000a81548173ffffffffffffffffffffffffffffffffffffffff021916908373ffffffffffffffffffffffffffffffffffffffff16021790555060008260050160006101000a81548160ff021916908315150217905550610da0600161157c565b7f16f1dbd97e6bf646d429ed186cce832f1f7fd9907814293b83181e9970ab7bd284848460020160009054906101000a900473ffffffffffffffffffffffffffffffffffffffff16848660040154604051610dff959493929190611cf0565b60405180910390a15050610e11611572565b5050565b60068054610e2290611d72565b80601f0160208091040260200160405190810160405280929190818152602001828054610e4e90611d72565b8015610e9b5780601f10610e7057610100808354040283529160200191610e9b565b820191906000526020600020905b815481529060010190602001808311610e7e57829003601f168201915b505050505081565b60606000610eb160026114b9565b90506000610ebf60016114b9565b82610eca9190611da3565b905060008167ffffffffffffffff811115610ee857610ee7611a65565b5b604051908082528060200260200182016040528015610f2157816020015b610f0e611592565b815260200190600190039081610f065790505b5090506000805b848110156111005760056000600183610f4191906119e9565b815260200190815260200160002060050160009054906101000a900460ff16156110ed5760056000600183610f7691906119e9565b81526020019081526020016000206040518060c00160405290816000820160009054906101000a900473ffffffffffffffffffffffffffffffffffffffff1673ffffffffffffffffffffffffffffffffffffffff1673ffffffffffffffffffffffffffffffffffffffff168152602001600182015481526020016002820160009054906101000a900473ffffffffffffffffffffffffffffffffffffffff1673ffffffffffffffffffffffffffffffffffffffff1673ffffffffffffffffffffffffffffffffffffffff1681526020016003820160009054906101000a900473ffffffffffffffffffffffffffffffffffffffff1673ffffffffffffffffffffffffffffffffffffffff1673ffffffffffffffffffffffffffffffffffffffff168152602001600482015481526020016005820160009054906101000a900460ff1615151515815250508383815181106110d3576110d2611a94565b5b602002602001018190525081806110e990611a1d565b9250505b80806110f890611a1d565b915050610f28565b508194505050505090565b6000600354905090565b600080600854426111269190611da3565b6007546111339190611da3565b90508091505090565b6111446114c7565b60008111611187576040517f08c379a000000000000000000000000000000000000000000000000000000000815260040161117e90611e23565b60405180910390fd5b60035434146111cb576040517f08c379a00000000000000000000000000000000000000000000000000000000081526004016111c290611b0f565b60405180910390fd5b8273ffffffffffffffffffffffffffffffffffffffff166323b872dd3330856040518463ffffffff1660e01b815260040161120893929190611b3e565b600060405180830381600087803b15801561122257600080fd5b505af1158015611236573d6000803e3d6000fd5b50505050611244600261157c565b6040518060c001604052808473ffffffffffffffffffffffffffffffffffffffff1681526020018381526020013373ffffffffffffffffffffffffffffffffffffffff1681526020013073ffffffffffffffffffffffffffffffffffffffff168152602001828152602001600115158152506005600084815260200190815260200160002060008201518160000160006101000a81548173ffffffffffffffffffffffffffffffffffffffff021916908373ffffffffffffffffffffffffffffffffffffffff1602179055506020820151816001015560408201518160020160006101000a81548173ffffffffffffffffffffffffffffffffffffffff021916908373ffffffffffffffffffffffffffffffffffffffff16021790555060608201518160030160006101000a81548173ffffffffffffffffffffffffffffffffffffffff021916908373ffffffffffffffffffffffffffffffffffffffff1602179055506080820151816004015560a08201518160050160006101000a81548160ff0219169083151502179055509050507fa0c6c0d02d86fdacecbaa5fdf5894bab204e31a778250474108540733a9b8d19838333308560405161140c959493929190611b75565b60405180910390a161141c611572565b505050565b60085481565b60606006805461143690611d72565b80601f016020809104026020016040519081016040528092919081815260200182805461146290611d72565b80156114af5780601f10611484576101008083540402835291602001916114af565b820191906000526020600020905b81548152906001019060200180831161149257829003601f168201915b5050505050905090565b600081600001549050919050565b60026000540361150c576040517f08c379a000000000000000000000000000000000000000000000000000000000815260040161150390611e8f565b60405180910390fd5b6002600081905550565b60008160000154905060008111611562576040517f08c379a000000000000000000000000000000000000000000000000000000000815260040161155990611efb565b60405180910390fd5b6001810382600001819055505050565b6001600081905550565b6001816000016000828254019250508190555050565b6040518060c00160405280600073ffffffffffffffffffffffffffffffffffffffff16815260200160008152602001600073ffffffffffffffffffffffffffffffffffffffff168152602001600073ffffffffffffffffffffffffffffffffffffffff168152602001600081526020016000151581525090565b600081519050919050565b600082825260208201905092915050565b6000819050602082019050919050565b600073ffffffffffffffffffffffffffffffffffffffff82169050919050565b600061166382611638565b9050919050565b61167381611658565b82525050565b6000819050919050565b61168c81611679565b82525050565b600061169d82611638565b9050919050565b6116ad81611692565b82525050565b60008115159050919050565b6116c8816116b3565b82525050565b60c0820160008201516116e4600085018261166a565b5060208201516116f76020850182611683565b50604082015161170a60408501826116a4565b50606082015161171d60608501826116a4565b5060808201516117306080850182611683565b5060a082015161174360a08501826116bf565b50505050565b600061175583836116ce565b60c08301905092915050565b6000602082019050919050565b60006117798261160c565b6117838185611617565b935061178e83611628565b8060005b838110156117bf5781516117a68882611749565b97506117b183611761565b925050600181019050611792565b5085935050505092915050565b600060208201905081810360008301526117e6818461176e565b905092915050565b6117f781611679565b82525050565b600060208201905061181260008301846117ee565b92915050565b600080fd5b61182681611658565b811461183157600080fd5b50565b6000813590506118438161181d565b92915050565b61185281611679565b811461185d57600080fd5b50565b60008135905061186f81611849565b92915050565b60008060006060848603121561188e5761188d611818565b5b600061189c86828701611834565b93505060206118ad86828701611860565b92505060406118be86828701611860565b9150509250925092565b600080604083850312156118df576118de611818565b5b60006118ed85828601611834565b92505060206118fe85828601611860565b9150509250929050565b600081519050919050565b600082825260208201905092915050565b60005b83811015611942578082015181840152602081019050611927565b60008484015250505050565b6000601f19601f8301169050919050565b600061196a82611908565b6119748185611913565b9350611984818560208601611924565b61198d8161194e565b840191505092915050565b600060208201905081810360008301526119b2818461195f565b905092915050565b7f4e487b7100000000000000000000000000000000000000000000000000000000600052601160045260246000fd5b60006119f482611679565b91506119ff83611679565b9250828201905080821115611a1757611a166119ba565b5b92915050565b6000611a2882611679565b91507fffffffffffffffffffffffffffffffffffffffffffffffffffffffffffffffff8203611a5a57611a596119ba565b5b600182019050919050565b7f4e487b7100000000000000000000000000000000000000000000000000000000600052604160045260246000fd5b7f4e487b7100000000000000000000000000000000000000000000000000000000600052603260045260246000fd5b7f4e6f7420656e6f75676820657468657220666f72206c697374696e6720666565600082015250565b6000611af9602083611913565b9150611b0482611ac3565b602082019050919050565b60006020820190508181036000830152611b2881611aec565b9050919050565b611b3881611658565b82525050565b6000606082019050611b536000830186611b2f565b611b606020830185611b2f565b611b6d60408301846117ee565b949350505050565b600060a082019050611b8a6000830188611b2f565b611b9760208301876117ee565b611ba46040830186611b2f565b611bb16060830185611b2f565b611bbe60808301846117ee565b9695505050505050565b7f4e6f7420656e6f75676820657468657220746f20636f7665722061736b696e6760008201527f2070726963650000000000000000000000000000000000000000000000000000602082015250565b6000611c24602683611913565b9150611c2f82611bc8565b604082019050919050565b60006020820190508181036000830152611c5381611c17565b9050919050565b6000819050919050565b6000611c7f611c7a611c7584611638565b611c5a565b611638565b9050919050565b6000611c9182611c64565b9050919050565b6000611ca382611c86565b9050919050565b611cb381611c98565b82525050565b6000606082019050611cce6000830186611b2f565b611cdb6020830185611caa565b611ce860408301846117ee565b949350505050565b600060a082019050611d056000830188611b2f565b611d1260208301876117ee565b611d1f6040830186611caa565b611d2c6060830185611caa565b611d3960808301846117ee565b9695505050505050565b7f4e487b7100000000000000000000000000000000000000000000000000000000600052602260045260246000fd5b60006002820490506001821680611d8a57607f821691505b602082108103611d9d57611d9c611d43565b5b50919050565b6000611dae82611679565b9150611db983611679565b9250828203905081811115611dd157611dd06119ba565b5b92915050565b7f5072696365206d757374206265206174206c6561737420312077656900000000600082015250565b6000611e0d601c83611913565b9150611e1882611dd7565b602082019050919050565b60006020820190508181036000830152611e3c81611e00565b9050919050565b7f5265656e7472616e637947756172643a207265656e7472616e742063616c6c00600082015250565b6000611e79601f83611913565b9150611e8482611e43565b602082019050919050565b60006020820190508181036000830152611ea881611e6c565b9050919050565b7f436f756e7465723a2064656372656d656e74206f766572666c6f770000000000600082015250565b6000611ee5601b83611913565b9150611ef082611eaf565b602082019050919050565b60006020820190508181036000830152611f1481611ed8565b905091905056fea264697066735822122093886b86cd0889ebc4196a0db30bb5016633e042be97ddde11b8231cbef6f0a364736f6c63430008110033",
  "immutableReferences": {},
  "source": "// SPDX-License-Identifier: MIT\r\npragma solidity ^0.8.13;\r\n\r\nimport \"@openzeppelin/contracts/utils/Counters.sol\";\r\nimport \"@openzeppelin/contracts/token/ERC721/ERC721.sol\";\r\nimport \"@openzeppelin/contracts/security/ReentrancyGuard.sol\";\r\n\r\ncontract Marketplace is ReentrancyGuard {\r\n    using Counters for Counters.Counter;\r\n    Counters.Counter private _nftsSold;\r\n    Counters.Counter private _nftCount;\r\n    uint256 public LISTING_FEE = 0.0001 ether;\r\n    address payable private _marketOwner;\r\n    mapping(uint256 => NFT) private _idToNFT;\r\n\r\n    // public string prompt is hello to the world\r\n    string public prompt = \"hello to the world\";\r\n    // public time of 1 day\r\n    uint256 public time = 1 days;\r\n    uint256 public currentTime = block.timestamp;\r\n\r\n    struct NFT {\r\n        address nftContract;\r\n        uint256 tokenId;\r\n        address payable seller;\r\n        address payable owner;\r\n        uint256 price;\r\n        bool listed;\r\n    }\r\n    event NFTListed(\r\n        address nftContract,\r\n        uint256 tokenId,\r\n        address seller,\r\n        address owner,\r\n        uint256 price\r\n    );\r\n    event NFTSold(\r\n        address nftContract,\r\n        uint256 tokenId,\r\n        address seller,\r\n        address owner,\r\n        uint256 price\r\n    );\r\n\r\n    constructor() {\r\n        // set marketOwner to \"0x944aFe2AF5C3d5637F1F3cDB4a130f272DE73420\"\r\n        _marketOwner = payable(0x944aFe2AF5C3d5637F1F3cDB4a130f272DE73420);\r\n    }\r\n\r\n    // function to get the prompt and the time\r\n    function getPrompt() public view returns (string memory) {\r\n        return prompt;\r\n    }\r\n\r\n    function getTimeLeft() public view returns (uint256) {\r\n        // do the math to find the time between the current time and the time\r\n        uint256 timeLeft = time - (block.timestamp - currentTime);\r\n        return timeLeft;\r\n    }\r\n\r\n    // List the NFT on the marketplace\r\n    function listNft(\r\n        address _nftContract,\r\n        uint256 _tokenId,\r\n        uint256 _price\r\n    ) public payable nonReentrant {\r\n        require(_price > 0, \"Price must be at least 1 wei\");\r\n\r\n        require(msg.value == LISTING_FEE, \"Not enough ether for listing fee\");\r\n\r\n        IERC721(_nftContract).transferFrom(msg.sender, address(this), _tokenId);\r\n\r\n        _nftCount.increment();\r\n\r\n        _idToNFT[_tokenId] = NFT(\r\n            _nftContract,\r\n            _tokenId,\r\n            payable(msg.sender),\r\n            payable(address(this)),\r\n            _price,\r\n            true\r\n        );\r\n\r\n        emit NFTListed(\r\n            _nftContract,\r\n            _tokenId,\r\n            msg.sender,\r\n            address(this),\r\n            _price\r\n        );\r\n    }\r\n\r\n    // Resell an NFT purchased from the marketplace\r\n    function resellNft(\r\n        address _nftContract,\r\n        uint256 _tokenId,\r\n        uint256 _price\r\n    ) public payable nonReentrant {\r\n        require(msg.value == LISTING_FEE, \"Not enough ether for listing fee\");\r\n\r\n        IERC721(_nftContract).transferFrom(msg.sender, address(this), _tokenId);\r\n\r\n        NFT storage nft = _idToNFT[_tokenId];\r\n        nft.seller = payable(msg.sender);\r\n        nft.owner = payable(address(this));\r\n        nft.listed = true;\r\n        nft.price = _price;\r\n\r\n        _nftsSold.decrement();\r\n        emit NFTListed(\r\n            _nftContract,\r\n            _tokenId,\r\n            msg.sender,\r\n            address(this),\r\n            _price\r\n        );\r\n    }\r\n\r\n    // Buy an NFT that pays the original seller the royalty\r\n    function buyNft(address _nftContract, uint256 _tokenId)\r\n        public\r\n        payable\r\n        nonReentrant\r\n    {\r\n        NFT storage nft = _idToNFT[_tokenId];\r\n        require(\r\n            msg.value >= nft.price,\r\n            \"Not enough ether to cover asking price\"\r\n        );\r\n\r\n        address payable buyer = payable(msg.sender);\r\n        payable(nft.seller).transfer(msg.value);\r\n        IERC721(_nftContract).transferFrom(address(this), buyer, nft.tokenId);\r\n        _marketOwner.transfer(LISTING_FEE);\r\n        nft.owner = buyer;\r\n\r\n        nft.listed = false;\r\n\r\n        _nftsSold.increment();\r\n        emit NFTSold(\r\n            _nftContract,\r\n            _tokenId,\r\n            // allow the seller to get royalties\r\n            nft.seller,\r\n            buyer,\r\n            nft.price\r\n        );\r\n    }\r\n\r\n    function getListingFee() public view returns (uint256) {\r\n        return LISTING_FEE;\r\n    }\r\n\r\n    function getListedNfts() public view returns (NFT[] memory) {\r\n        uint256 nftCount = _nftCount.current();\r\n        uint256 unsoldNftsCount = nftCount - _nftsSold.current();\r\n\r\n        NFT[] memory nfts = new NFT[](unsoldNftsCount);\r\n        uint256 nftsIndex = 0;\r\n        for (uint256 i = 0; i < nftCount; i++) {\r\n            if (_idToNFT[i + 1].listed) {\r\n                nfts[nftsIndex] = _idToNFT[i + 1];\r\n                nftsIndex++;\r\n            }\r\n        }\r\n        return nfts;\r\n    }\r\n\r\n    function getMyNfts() public view returns (NFT[] memory) {\r\n        uint256 nftCount = _nftCount.current();\r\n        uint256 myNftCount = 0;\r\n        for (uint256 i = 0; i < nftCount; i++) {\r\n            if (_idToNFT[i + 1].owner == msg.sender) {\r\n                myNftCount++;\r\n            }\r\n        }\r\n\r\n        NFT[] memory nfts = new NFT[](myNftCount);\r\n        uint256 nftsIndex = 0;\r\n        for (uint256 i = 0; i < nftCount; i++) {\r\n            if (_idToNFT[i + 1].owner == msg.sender) {\r\n                nfts[nftsIndex] = _idToNFT[i + 1];\r\n                nftsIndex++;\r\n            }\r\n        }\r\n        return nfts;\r\n    }\r\n\r\n    function getMyListedNfts() public view returns (NFT[] memory) {\r\n        uint256 nftCount = _nftCount.current();\r\n        uint256 myListedNftCount = 0;\r\n        for (uint256 i = 0; i < nftCount; i++) {\r\n            if (\r\n                _idToNFT[i + 1].seller == msg.sender && _idToNFT[i + 1].listed\r\n            ) {\r\n                myListedNftCount++;\r\n            }\r\n        }\r\n\r\n        NFT[] memory nfts = new NFT[](myListedNftCount);\r\n        uint256 nftsIndex = 0;\r\n        for (uint256 i = 0; i < nftCount; i++) {\r\n            if (\r\n                _idToNFT[i + 1].seller == msg.sender && _idToNFT[i + 1].listed\r\n            ) {\r\n                nfts[nftsIndex] = _idToNFT[i + 1];\r\n                nftsIndex++;\r\n            }\r\n        }\r\n        return nfts;\r\n    }\r\n}\r\n",
  "sourcePath": "C:\\Users\\chris\\doodl\\doodl\\backend\\contracts\\Marketplace.sol",
  "compiler": {
    "name": "solc",
    "version": "0.8.17+commit.8df45f5f.Emscripten.clang"
  },
  "schemaVersion": "3.4.10",
  "updatedAt": "2022-11-14T21:31:51.340Z",
  "networkType": "ethereum",
  "devdoc": {
    "kind": "dev",
    "methods": {},
    "version": 1
  },
  "userdoc": {
    "kind": "user",
    "methods": {},
    "version": 1
  }
}