{
  "contractName": "Marketplace",
  "abi": [
    {
      "inputs": [],
      "stateMutability": "nonpayable",
      "type": "constructor"
    },
    {
      "anonymous": false,
      "inputs": [
        {
          "indexed": false,
          "internalType": "address",
          "name": "nftContract",
          "type": "address"
        },
        {
          "indexed": false,
          "internalType": "uint256",
          "name": "tokenId",
          "type": "uint256"
        },
        {
          "indexed": false,
          "internalType": "address",
          "name": "seller",
          "type": "address"
        },
        {
          "indexed": false,
          "internalType": "address",
          "name": "owner",
          "type": "address"
        },
        {
          "indexed": false,
          "internalType": "uint256",
          "name": "price",
          "type": "uint256"
        }
      ],
      "name": "NFTListed",
      "type": "event"
    },
    {
      "anonymous": false,
      "inputs": [
        {
          "indexed": false,
          "internalType": "address",
          "name": "nftContract",
          "type": "address"
        },
        {
          "indexed": false,
          "internalType": "uint256",
          "name": "tokenId",
          "type": "uint256"
        },
        {
          "indexed": false,
          "internalType": "address",
          "name": "seller",
          "type": "address"
        },
        {
          "indexed": false,
          "internalType": "address",
          "name": "owner",
          "type": "address"
        },
        {
          "indexed": false,
          "internalType": "uint256",
          "name": "price",
          "type": "uint256"
        }
      ],
      "name": "NFTSold",
      "type": "event"
    },
    {
      "inputs": [],
      "name": "LISTING_FEE",
      "outputs": [
        {
          "internalType": "uint256",
          "name": "",
          "type": "uint256"
        }
      ],
      "stateMutability": "view",
      "type": "function",
      "constant": true
    },
    {
      "inputs": [],
      "name": "currentTime",
      "outputs": [
        {
          "internalType": "uint256",
          "name": "",
          "type": "uint256"
        }
      ],
      "stateMutability": "view",
      "type": "function",
      "constant": true
    },
    {
      "inputs": [],
      "name": "prompt",
      "outputs": [
        {
          "internalType": "string",
          "name": "",
          "type": "string"
        }
      ],
      "stateMutability": "view",
      "type": "function",
      "constant": true
    },
    {
      "inputs": [],
      "name": "time",
      "outputs": [
        {
          "internalType": "uint256",
          "name": "",
          "type": "uint256"
        }
      ],
      "stateMutability": "view",
      "type": "function",
      "constant": true
    },
    {
      "inputs": [],
      "name": "getPrompt",
      "outputs": [
        {
          "internalType": "string",
          "name": "",
          "type": "string"
        }
      ],
      "stateMutability": "view",
      "type": "function",
      "constant": true
    },
    {
      "inputs": [],
      "name": "getTimeLeft",
      "outputs": [
        {
          "internalType": "uint256",
          "name": "",
          "type": "uint256"
        }
      ],
      "stateMutability": "view",
      "type": "function",
      "constant": true
    },
    {
      "inputs": [
        {
          "internalType": "address",
          "name": "_nftContract",
          "type": "address"
        },
        {
          "internalType": "uint256",
          "name": "_tokenId",
          "type": "uint256"
        },
        {
          "internalType": "uint256",
          "name": "_price",
          "type": "uint256"
        }
      ],
      "name": "listNft",
      "outputs": [],
      "stateMutability": "payable",
      "type": "function",
      "payable": true
    },
    {
      "inputs": [
        {
          "internalType": "address",
          "name": "_nftContract",
          "type": "address"
        },
        {
          "internalType": "uint256",
          "name": "_tokenId",
          "type": "uint256"
        },
        {
          "internalType": "uint256",
          "name": "_price",
          "type": "uint256"
        }
      ],
      "name": "resellNft",
      "outputs": [],
      "stateMutability": "payable",
      "type": "function",
      "payable": true
    },
    {
      "inputs": [
        {
          "internalType": "address",
          "name": "_nftContract",
          "type": "address"
        },
        {
          "internalType": "uint256",
          "name": "_tokenId",
          "type": "uint256"
        }
      ],
      "name": "buyNft",
      "outputs": [],
      "stateMutability": "payable",
      "type": "function",
      "payable": true
    },
    {
      "inputs": [],
      "name": "getListingFee",
      "outputs": [
        {
          "internalType": "uint256",
          "name": "",
          "type": "uint256"
        }
      ],
      "stateMutability": "view",
      "type": "function",
      "constant": true
    },
    {
      "inputs": [],
      "name": "getListedNfts",
      "outputs": [
        {
          "components": [
            {
              "internalType": "address",
              "name": "nftContract",
              "type": "address"
            },
            {
              "internalType": "uint256",
              "name": "tokenId",
              "type": "uint256"
            },
            {
              "internalType": "address payable",
              "name": "seller",
              "type": "address"
            },
            {
              "internalType": "address payable",
              "name": "owner",
              "type": "address"
            },
            {
              "internalType": "uint256",
              "name": "price",
              "type": "uint256"
            },
            {
              "internalType": "bool",
              "name": "listed",
              "type": "bool"
            }
          ],
          "internalType": "struct Marketplace.NFT[]",
          "name": "",
          "type": "tuple[]"
        }
      ],
      "stateMutability": "view",
      "type": "function",
      "constant": true
    },
    {
      "inputs": [],
      "name": "getMyNfts",
      "outputs": [
        {
          "components": [
            {
              "internalType": "address",
              "name": "nftContract",
              "type": "address"
            },
            {
              "internalType": "uint256",
              "name": "tokenId",
              "type": "uint256"
            },
            {
              "internalType": "address payable",
              "name": "seller",
              "type": "address"
            },
            {
              "internalType": "address payable",
              "name": "owner",
              "type": "address"
            },
            {
              "internalType": "uint256",
              "name": "price",
              "type": "uint256"
            },
            {
              "internalType": "bool",
              "name": "listed",
              "type": "bool"
            }
          ],
          "internalType": "struct Marketplace.NFT[]",
          "name": "",
          "type": "tuple[]"
        }
      ],
      "stateMutability": "view",
      "type": "function",
      "constant": true
    },
    {
      "inputs": [],
      "name": "getMyListedNfts",
      "outputs": [
        {
          "components": [
            {
              "internalType": "address",
              "name": "nftContract",
              "type": "address"
            },
            {
              "internalType": "uint256",
              "name": "tokenId",
              "type": "uint256"
            },
            {
              "internalType": "address payable",
              "name": "seller",
              "type": "address"
            },
            {
              "internalType": "address payable",
              "name": "owner",
              "type": "address"
            },
            {
              "internalType": "uint256",
              "name": "price",
              "type": "uint256"
            },
            {
              "internalType": "bool",
              "name": "listed",
              "type": "bool"
            }
          ],
          "internalType": "struct Marketplace.NFT[]",
          "name": "",
          "type": "tuple[]"
        }
      ],
      "stateMutability": "view",
      "type": "function",
      "constant": true
    }
  ],
  "bytecode": "0x6080604052655af3107a40006003556040518060400160405280601181526020017f6f75746572737061636520636f77626f790000000000000000000000000000008152506006908162000054919062000336565b506121c0600755426008553480156200006c57600080fd5b50600160008190555033600460006101000a81548173ffffffffffffffffffffffffffffffffffffffff021916908373ffffffffffffffffffffffffffffffffffffffff1602179055506200041d565b600081519050919050565b7f4e487b7100000000000000000000000000000000000000000000000000000000600052604160045260246000fd5b7f4e487b7100000000000000000000000000000000000000000000000000000000600052602260045260246000fd5b600060028204905060018216806200013e57607f821691505b602082108103620001545762000153620000f6565b5b50919050565b60008190508160005260206000209050919050565b60006020601f8301049050919050565b600082821b905092915050565b600060088302620001be7fffffffffffffffffffffffffffffffffffffffffffffffffffffffffffffffff826200017f565b620001ca86836200017f565b95508019841693508086168417925050509392505050565b6000819050919050565b6000819050919050565b600062000217620002116200020b84620001e2565b620001ec565b620001e2565b9050919050565b6000819050919050565b6200023383620001f6565b6200024b62000242826200021e565b8484546200018c565b825550505050565b600090565b6200026262000253565b6200026f81848462000228565b505050565b5b8181101562000297576200028b60008262000258565b60018101905062000275565b5050565b601f821115620002e657620002b0816200015a565b620002bb846200016f565b81016020851015620002cb578190505b620002e3620002da856200016f565b83018262000274565b50505b505050565b600082821c905092915050565b60006200030b60001984600802620002eb565b1980831691505092915050565b6000620003268383620002f8565b9150826002028217905092915050565b6200034182620000bc565b67ffffffffffffffff8111156200035d576200035c620000c7565b5b62000369825462000125565b620003768282856200029b565b600060209050601f831160018114620003ae576000841562000399578287015190505b620003a5858262000318565b86555062000415565b601f198416620003be866200015a565b60005b82811015620003e857848901518255600182019150602085019450602081019050620003c1565b8683101562000408578489015162000404601f891682620002f8565b8355505b6001600288020188555050505b505050505050565b612007806200042d6000396000f3fe6080604052600436106100c25760003560e01c80637c65d7111161007f578063c7e284b811610059578063c7e284b81461022c578063c922b17c14610257578063d18e81b314610273578063fc5be82f1461029e576100c2565b80637c65d711146101ab5780638d6cb3fb146101d6578063b8fe6abe14610201576100c2565b8063047b07bf146100c757806316ada547146100f25780631f4cc4db1461011d5780632b86ae381461014857806334f5b624146101735780634ddf4f8f1461018f575b600080fd5b3480156100d357600080fd5b506100dc6102c9565b6040516100e99190611816565b60405180910390f35b3480156100fe57600080fd5b506101076105fc565b6040516101149190611847565b60405180910390f35b34801561012957600080fd5b50610132610602565b60405161013f9190611816565b60405180910390f35b34801561015457600080fd5b5061015d6109a7565b60405161016a9190611847565b60405180910390f35b61018d600480360381019061018891906118bf565b6109ad565b005b6101a960048036038101906101a49190611912565b610b82565b005b3480156101b757600080fd5b506101c0610e15565b6040516101cd91906119e2565b60405180910390f35b3480156101e257600080fd5b506101eb610ea3565b6040516101f89190611816565b60405180910390f35b34801561020d57600080fd5b5061021661110b565b6040516102239190611847565b60405180910390f35b34801561023857600080fd5b50610241611115565b60405161024e9190611847565b60405180910390f35b610271600480360381019061026c91906118bf565b61113c565b005b34801561027f57600080fd5b5061028861146b565b6040516102959190611847565b60405180910390f35b3480156102aa57600080fd5b506102b3611471565b6040516102c091906119e2565b60405180910390f35b606060006102d76002611503565b90506000805b8281101561037c573373ffffffffffffffffffffffffffffffffffffffff166005600060018461030d9190611a33565b815260200190815260200160002060030160009054906101000a900473ffffffffffffffffffffffffffffffffffffffff1673ffffffffffffffffffffffffffffffffffffffff160361036957818061036590611a67565b9250505b808061037490611a67565b9150506102dd565b5060008167ffffffffffffffff81111561039957610398611aaf565b5b6040519080825280602002602001820160405280156103d257816020015b6103bf6115dc565b8152602001906001900390816103b75790505b5090506000805b848110156105f1573373ffffffffffffffffffffffffffffffffffffffff16600560006001846104099190611a33565b815260200190815260200160002060030160009054906101000a900473ffffffffffffffffffffffffffffffffffffffff1673ffffffffffffffffffffffffffffffffffffffff16036105de57600560006001836104679190611a33565b81526020019081526020016000206040518060c00160405290816000820160009054906101000a900473ffffffffffffffffffffffffffffffffffffffff1673ffffffffffffffffffffffffffffffffffffffff1673ffffffffffffffffffffffffffffffffffffffff168152602001600182015481526020016002820160009054906101000a900473ffffffffffffffffffffffffffffffffffffffff1673ffffffffffffffffffffffffffffffffffffffff1673ffffffffffffffffffffffffffffffffffffffff1681526020016003820160009054906101000a900473ffffffffffffffffffffffffffffffffffffffff1673ffffffffffffffffffffffffffffffffffffffff1673ffffffffffffffffffffffffffffffffffffffff168152602001600482015481526020016005820160009054906101000a900460ff1615151515815250508383815181106105c4576105c3611ade565b5b602002602001018190525081806105da90611a67565b9250505b80806105e990611a67565b9150506103d9565b508194505050505090565b60075481565b606060006106106002611503565b90506000805b828110156106ee573373ffffffffffffffffffffffffffffffffffffffff16600560006001846106469190611a33565b815260200190815260200160002060020160009054906101000a900473ffffffffffffffffffffffffffffffffffffffff1673ffffffffffffffffffffffffffffffffffffffff161480156106c75750600560006001836106a79190611a33565b815260200190815260200160002060050160009054906101000a900460ff165b156106db5781806106d790611a67565b9250505b80806106e690611a67565b915050610616565b5060008167ffffffffffffffff81111561070b5761070a611aaf565b5b60405190808252806020026020018201604052801561074457816020015b6107316115dc565b8152602001906001900390816107295790505b5090506000805b8481101561099c573373ffffffffffffffffffffffffffffffffffffffff166005600060018461077b9190611a33565b815260200190815260200160002060020160009054906101000a900473ffffffffffffffffffffffffffffffffffffffff1673ffffffffffffffffffffffffffffffffffffffff161480156107fc5750600560006001836107dc9190611a33565b815260200190815260200160002060050160009054906101000a900460ff165b1561098957600560006001836108129190611a33565b81526020019081526020016000206040518060c00160405290816000820160009054906101000a900473ffffffffffffffffffffffffffffffffffffffff1673ffffffffffffffffffffffffffffffffffffffff1673ffffffffffffffffffffffffffffffffffffffff168152602001600182015481526020016002820160009054906101000a900473ffffffffffffffffffffffffffffffffffffffff1673ffffffffffffffffffffffffffffffffffffffff1673ffffffffffffffffffffffffffffffffffffffff1681526020016003820160009054906101000a900473ffffffffffffffffffffffffffffffffffffffff1673ffffffffffffffffffffffffffffffffffffffff1673ffffffffffffffffffffffffffffffffffffffff168152602001600482015481526020016005820160009054906101000a900460ff16151515158152505083838151811061096f5761096e611ade565b5b6020026020010181905250818061098590611a67565b9250505b808061099490611a67565b91505061074b565b508194505050505090565b60035481565b6109b5611511565b60035434146109f9576040517f08c379a00000000000000000000000000000000000000000000000000000000081526004016109f090611b59565b60405180910390fd5b8273ffffffffffffffffffffffffffffffffffffffff166323b872dd3330856040518463ffffffff1660e01b8152600401610a3693929190611b88565b600060405180830381600087803b158015610a5057600080fd5b505af1158015610a64573d6000803e3d6000fd5b505050506000600560008481526020019081526020016000209050338160020160006101000a81548173ffffffffffffffffffffffffffffffffffffffff021916908373ffffffffffffffffffffffffffffffffffffffff160217905550308160030160006101000a81548173ffffffffffffffffffffffffffffffffffffffff021916908373ffffffffffffffffffffffffffffffffffffffff16021790555060018160050160006101000a81548160ff021916908315150217905550818160040181905550610b356001611560565b7fa0c6c0d02d86fdacecbaa5fdf5894bab204e31a778250474108540733a9b8d198484333086604051610b6c959493929190611bbf565b60405180910390a150610b7d6115bc565b505050565b610b8a611511565b60006005600083815260200190815260200160002090508060040154341015610be8576040517f08c379a0000000000000000000000000000000000000000000000000000000008152600401610bdf90611c84565b60405180910390fd5b60003390508160020160009054906101000a900473ffffffffffffffffffffffffffffffffffffffff1673ffffffffffffffffffffffffffffffffffffffff166108fc349081150290604051600060405180830381858888f19350505050158015610c57573d6000803e3d6000fd5b508373ffffffffffffffffffffffffffffffffffffffff166323b872dd308385600101546040518463ffffffff1660e01b8152600401610c9993929190611d03565b600060405180830381600087803b158015610cb357600080fd5b505af1158015610cc7573d6000803e3d6000fd5b50505050600460009054906101000a900473ffffffffffffffffffffffffffffffffffffffff1673ffffffffffffffffffffffffffffffffffffffff166108fc6003549081150290604051600060405180830381858888f19350505050158015610d35573d6000803e3d6000fd5b50808260030160006101000a81548173ffffffffffffffffffffffffffffffffffffffff021916908373ffffffffffffffffffffffffffffffffffffffff16021790555060008260050160006101000a81548160ff021916908315150217905550610da060016115c6565b7f16f1dbd97e6bf646d429ed186cce832f1f7fd9907814293b83181e9970ab7bd28483600101548460020160009054906101000a900473ffffffffffffffffffffffffffffffffffffffff168434604051610dff959493929190611d3a565b60405180910390a15050610e116115bc565b5050565b60068054610e2290611dbc565b80601f0160208091040260200160405190810160405280929190818152602001828054610e4e90611dbc565b8015610e9b5780601f10610e7057610100808354040283529160200191610e9b565b820191906000526020600020905b815481529060010190602001808311610e7e57829003601f168201915b505050505081565b60606000610eb16002611503565b90506000610ebf6001611503565b82610eca9190611ded565b905060008167ffffffffffffffff811115610ee857610ee7611aaf565b5b604051908082528060200260200182016040528015610f2157816020015b610f0e6115dc565b815260200190600190039081610f065790505b5090506000805b848110156111005760056000600183610f419190611a33565b815260200190815260200160002060050160009054906101000a900460ff16156110ed5760056000600183610f769190611a33565b81526020019081526020016000206040518060c00160405290816000820160009054906101000a900473ffffffffffffffffffffffffffffffffffffffff1673ffffffffffffffffffffffffffffffffffffffff1673ffffffffffffffffffffffffffffffffffffffff168152602001600182015481526020016002820160009054906101000a900473ffffffffffffffffffffffffffffffffffffffff1673ffffffffffffffffffffffffffffffffffffffff1673ffffffffffffffffffffffffffffffffffffffff1681526020016003820160009054906101000a900473ffffffffffffffffffffffffffffffffffffffff1673ffffffffffffffffffffffffffffffffffffffff1673ffffffffffffffffffffffffffffffffffffffff168152602001600482015481526020016005820160009054906101000a900460ff1615151515815250508383815181106110d3576110d2611ade565b5b602002602001018190525081806110e990611a67565b9250505b80806110f890611a67565b915050610f28565b508194505050505090565b6000600354905090565b600080600854426111269190611ded565b6007546111339190611ded565b90508091505090565b611144611511565b60008111611187576040517f08c379a000000000000000000000000000000000000000000000000000000000815260040161117e90611e6d565b60405180910390fd5b60035434146111cb576040517f08c379a00000000000000000000000000000000000000000000000000000000081526004016111c290611b59565b60405180910390fd5b60006111d5611115565b11611215576040517f08c379a000000000000000000000000000000000000000000000000000000000815260040161120c90611ed9565b60405180910390fd5b8273ffffffffffffffffffffffffffffffffffffffff166323b872dd3330856040518463ffffffff1660e01b815260040161125293929190611b88565b600060405180830381600087803b15801561126c57600080fd5b505af1158015611280573d6000803e3d6000fd5b5050505061128e60026115c6565b6040518060c001604052808473ffffffffffffffffffffffffffffffffffffffff1681526020018381526020013373ffffffffffffffffffffffffffffffffffffffff1681526020013073ffffffffffffffffffffffffffffffffffffffff168152602001828152602001600115158152506005600084815260200190815260200160002060008201518160000160006101000a81548173ffffffffffffffffffffffffffffffffffffffff021916908373ffffffffffffffffffffffffffffffffffffffff1602179055506020820151816001015560408201518160020160006101000a81548173ffffffffffffffffffffffffffffffffffffffff021916908373ffffffffffffffffffffffffffffffffffffffff16021790555060608201518160030160006101000a81548173ffffffffffffffffffffffffffffffffffffffff021916908373ffffffffffffffffffffffffffffffffffffffff1602179055506080820151816004015560a08201518160050160006101000a81548160ff0219169083151502179055509050507fa0c6c0d02d86fdacecbaa5fdf5894bab204e31a778250474108540733a9b8d198383333085604051611456959493929190611bbf565b60405180910390a16114666115bc565b505050565b60085481565b60606006805461148090611dbc565b80601f01602080910402602001604051908101604052809291908181526020018280546114ac90611dbc565b80156114f95780601f106114ce576101008083540402835291602001916114f9565b820191906000526020600020905b8154815290600101906020018083116114dc57829003601f168201915b5050505050905090565b600081600001549050919050565b600260005403611556576040517f08c379a000000000000000000000000000000000000000000000000000000000815260040161154d90611f45565b60405180910390fd5b6002600081905550565b600081600001549050600081116115ac576040517f08c379a00000000000000000000000000000000000000000000000000000000081526004016115a390611fb1565b60405180910390fd5b6001810382600001819055505050565b6001600081905550565b6001816000016000828254019250508190555050565b6040518060c00160405280600073ffffffffffffffffffffffffffffffffffffffff16815260200160008152602001600073ffffffffffffffffffffffffffffffffffffffff168152602001600073ffffffffffffffffffffffffffffffffffffffff168152602001600081526020016000151581525090565b600081519050919050565b600082825260208201905092915050565b6000819050602082019050919050565b600073ffffffffffffffffffffffffffffffffffffffff82169050919050565b60006116ad82611682565b9050919050565b6116bd816116a2565b82525050565b6000819050919050565b6116d6816116c3565b82525050565b60006116e782611682565b9050919050565b6116f7816116dc565b82525050565b60008115159050919050565b611712816116fd565b82525050565b60c08201600082015161172e60008501826116b4565b50602082015161174160208501826116cd565b50604082015161175460408501826116ee565b50606082015161176760608501826116ee565b50608082015161177a60808501826116cd565b5060a082015161178d60a0850182611709565b50505050565b600061179f8383611718565b60c08301905092915050565b6000602082019050919050565b60006117c382611656565b6117cd8185611661565b93506117d883611672565b8060005b838110156118095781516117f08882611793565b97506117fb836117ab565b9250506001810190506117dc565b5085935050505092915050565b6000602082019050818103600083015261183081846117b8565b905092915050565b611841816116c3565b82525050565b600060208201905061185c6000830184611838565b92915050565b600080fd5b611870816116a2565b811461187b57600080fd5b50565b60008135905061188d81611867565b92915050565b61189c816116c3565b81146118a757600080fd5b50565b6000813590506118b981611893565b92915050565b6000806000606084860312156118d8576118d7611862565b5b60006118e68682870161187e565b93505060206118f7868287016118aa565b9250506040611908868287016118aa565b9150509250925092565b6000806040838503121561192957611928611862565b5b60006119378582860161187e565b9250506020611948858286016118aa565b9150509250929050565b600081519050919050565b600082825260208201905092915050565b60005b8381101561198c578082015181840152602081019050611971565b60008484015250505050565b6000601f19601f8301169050919050565b60006119b482611952565b6119be818561195d565b93506119ce81856020860161196e565b6119d781611998565b840191505092915050565b600060208201905081810360008301526119fc81846119a9565b905092915050565b7f4e487b7100000000000000000000000000000000000000000000000000000000600052601160045260246000fd5b6000611a3e826116c3565b9150611a49836116c3565b9250828201905080821115611a6157611a60611a04565b5b92915050565b6000611a72826116c3565b91507fffffffffffffffffffffffffffffffffffffffffffffffffffffffffffffffff8203611aa457611aa3611a04565b5b600182019050919050565b7f4e487b7100000000000000000000000000000000000000000000000000000000600052604160045260246000fd5b7f4e487b7100000000000000000000000000000000000000000000000000000000600052603260045260246000fd5b7f4e6f7420656e6f75676820657468657220666f72206c697374696e6720666565600082015250565b6000611b4360208361195d565b9150611b4e82611b0d565b602082019050919050565b60006020820190508181036000830152611b7281611b36565b9050919050565b611b82816116a2565b82525050565b6000606082019050611b9d6000830186611b79565b611baa6020830185611b79565b611bb76040830184611838565b949350505050565b600060a082019050611bd46000830188611b79565b611be16020830187611838565b611bee6040830186611b79565b611bfb6060830185611b79565b611c086080830184611838565b9695505050505050565b7f4e6f7420656e6f75676820657468657220746f20636f7665722061736b696e6760008201527f2070726963650000000000000000000000000000000000000000000000000000602082015250565b6000611c6e60268361195d565b9150611c7982611c12565b604082019050919050565b60006020820190508181036000830152611c9d81611c61565b9050919050565b6000819050919050565b6000611cc9611cc4611cbf84611682565b611ca4565b611682565b9050919050565b6000611cdb82611cae565b9050919050565b6000611ced82611cd0565b9050919050565b611cfd81611ce2565b82525050565b6000606082019050611d186000830186611b79565b611d256020830185611cf4565b611d326040830184611838565b949350505050565b600060a082019050611d4f6000830188611b79565b611d5c6020830187611838565b611d696040830186611cf4565b611d766060830185611cf4565b611d836080830184611838565b9695505050505050565b7f4e487b7100000000000000000000000000000000000000000000000000000000600052602260045260246000fd5b60006002820490506001821680611dd457607f821691505b602082108103611de757611de6611d8d565b5b50919050565b6000611df8826116c3565b9150611e03836116c3565b9250828203905081811115611e1b57611e1a611a04565b5b92915050565b7f5072696365206d757374206265206174206c6561737420312077656900000000600082015250565b6000611e57601c8361195d565b9150611e6282611e21565b602082019050919050565b60006020820190508181036000830152611e8681611e4a565b9050919050565b7f54696d6520686173206578706972656400000000000000000000000000000000600082015250565b6000611ec360108361195d565b9150611ece82611e8d565b602082019050919050565b60006020820190508181036000830152611ef281611eb6565b9050919050565b7f5265656e7472616e637947756172643a207265656e7472616e742063616c6c00600082015250565b6000611f2f601f8361195d565b9150611f3a82611ef9565b602082019050919050565b60006020820190508181036000830152611f5e81611f22565b9050919050565b7f436f756e7465723a2064656372656d656e74206f766572666c6f770000000000600082015250565b6000611f9b601b8361195d565b9150611fa682611f65565b602082019050919050565b60006020820190508181036000830152611fca81611f8e565b905091905056fea26469706673582212202a0aa0857cf02154c04307288408ab95edf340ad8459db02d907363b2236e4ea64736f6c63430008110033",
  "immutableReferences": {},
  "source": "// SPDX-License-Identifier: MIT\r\npragma solidity ^0.8.13;\r\n\r\nimport \"@openzeppelin/contracts/utils/Counters.sol\";\r\nimport \"@openzeppelin/contracts/token/ERC721/ERC721.sol\";\r\nimport \"@openzeppelin/contracts/security/ReentrancyGuard.sol\";\r\n\r\ncontract Marketplace is ReentrancyGuard {\r\n    using Counters for Counters.Counter;\r\n    Counters.Counter private _nftsSold;\r\n    Counters.Counter private _nftCount;\r\n    uint256 public LISTING_FEE = 0.0001 ether;\r\n    address payable private _marketOwner;\r\n    mapping(uint256 => NFT) private _idToNFT;\r\n\r\n    string public prompt = \"outerspace cowboy\";\r\n    // public time of 1 day\r\n    uint256 public time = 0.1 days;\r\n    uint256 public currentTime = block.timestamp;\r\n\r\n    struct NFT {\r\n        address nftContract;\r\n        uint256 tokenId;\r\n        address payable seller;\r\n        address payable owner;\r\n        uint256 price;\r\n        bool listed;\r\n    }\r\n    event NFTListed(\r\n        address nftContract,\r\n        uint256 tokenId,\r\n        address seller,\r\n        address owner,\r\n        uint256 price\r\n    );\r\n    event NFTSold(\r\n        address nftContract,\r\n        uint256 tokenId,\r\n        address seller,\r\n        address owner,\r\n        uint256 price\r\n    );\r\n\r\n    constructor() {\r\n        _marketOwner = payable(msg.sender);\r\n    }\r\n\r\n    function getPrompt() public view returns (string memory) {\r\n        return prompt;\r\n    }\r\n\r\n    function getTimeLeft() public view returns (uint256) {\r\n        // do the math to find the time between the current time and the time\r\n        uint256 timeLeft = time - (block.timestamp - currentTime);\r\n        return timeLeft;\r\n    }\r\n\r\n    // List the NFT on the marketplace\r\n    function listNft(\r\n        address _nftContract,\r\n        uint256 _tokenId,\r\n        uint256 _price\r\n    ) public payable nonReentrant {\r\n        require(_price > 0, \"Price must be at least 1 wei\");\r\n        require(msg.value == LISTING_FEE, \"Not enough ether for listing fee\");\r\n        // require that there is time remaining\r\n        require(getTimeLeft() > 0, \"Time has expired\");\r\n\r\n        IERC721(_nftContract).transferFrom(msg.sender, address(this), _tokenId);\r\n\r\n        _nftCount.increment();\r\n\r\n        _idToNFT[_tokenId] = NFT(\r\n            _nftContract,\r\n            _tokenId,\r\n            payable(msg.sender),\r\n            payable(address(this)),\r\n            _price,\r\n            true\r\n        );\r\n\r\n        emit NFTListed(\r\n            _nftContract,\r\n            _tokenId,\r\n            msg.sender,\r\n            address(this),\r\n            _price\r\n        );\r\n    }\r\n\r\n    // Resell an NFT purchased from the marketplace\r\n    function resellNft(\r\n        address _nftContract,\r\n        uint256 _tokenId,\r\n        uint256 _price\r\n    ) public payable nonReentrant {\r\n        require(msg.value == LISTING_FEE, \"Not enough ether for listing fee\");\r\n\r\n        IERC721(_nftContract).transferFrom(msg.sender, address(this), _tokenId);\r\n\r\n        NFT storage nft = _idToNFT[_tokenId];\r\n        nft.seller = payable(msg.sender);\r\n        nft.owner = payable(address(this));\r\n        nft.listed = true;\r\n        nft.price = _price;\r\n\r\n        _nftsSold.decrement();\r\n        emit NFTListed(\r\n            _nftContract,\r\n            _tokenId,\r\n            msg.sender,\r\n            address(this),\r\n            _price\r\n        );\r\n    }\r\n\r\n    // Buy an NFT\r\n    function buyNft(address _nftContract, uint256 _tokenId)\r\n        public\r\n        payable\r\n        nonReentrant\r\n    {\r\n        NFT storage nft = _idToNFT[_tokenId];\r\n        require(\r\n            msg.value >= nft.price,\r\n            \"Not enough ether to cover asking price\"\r\n        );\r\n\r\n        address payable buyer = payable(msg.sender);\r\n        payable(nft.seller).transfer(msg.value);\r\n        IERC721(_nftContract).transferFrom(address(this), buyer, nft.tokenId);\r\n        _marketOwner.transfer(LISTING_FEE);\r\n        nft.owner = buyer;\r\n        nft.listed = false;\r\n\r\n        _nftsSold.increment();\r\n        emit NFTSold(_nftContract, nft.tokenId, nft.seller, buyer, msg.value);\r\n    }\r\n\r\n    function getListingFee() public view returns (uint256) {\r\n        return LISTING_FEE;\r\n    }\r\n\r\n    function getListedNfts() public view returns (NFT[] memory) {\r\n        uint256 nftCount = _nftCount.current();\r\n        uint256 unsoldNftsCount = nftCount - _nftsSold.current();\r\n\r\n        NFT[] memory nfts = new NFT[](unsoldNftsCount);\r\n        uint256 nftsIndex = 0;\r\n        for (uint256 i = 0; i < nftCount; i++) {\r\n            if (_idToNFT[i + 1].listed) {\r\n                nfts[nftsIndex] = _idToNFT[i + 1];\r\n                nftsIndex++;\r\n            }\r\n        }\r\n        return nfts;\r\n    }\r\n\r\n    function getMyNfts() public view returns (NFT[] memory) {\r\n        uint256 nftCount = _nftCount.current();\r\n        uint256 myNftCount = 0;\r\n        for (uint256 i = 0; i < nftCount; i++) {\r\n            if (_idToNFT[i + 1].owner == msg.sender) {\r\n                myNftCount++;\r\n            }\r\n        }\r\n\r\n        NFT[] memory nfts = new NFT[](myNftCount);\r\n        uint256 nftsIndex = 0;\r\n        for (uint256 i = 0; i < nftCount; i++) {\r\n            if (_idToNFT[i + 1].owner == msg.sender) {\r\n                nfts[nftsIndex] = _idToNFT[i + 1];\r\n                nftsIndex++;\r\n            }\r\n        }\r\n        return nfts;\r\n    }\r\n\r\n    function getMyListedNfts() public view returns (NFT[] memory) {\r\n        uint256 nftCount = _nftCount.current();\r\n        uint256 myListedNftCount = 0;\r\n        for (uint256 i = 0; i < nftCount; i++) {\r\n            if (\r\n                _idToNFT[i + 1].seller == msg.sender && _idToNFT[i + 1].listed\r\n            ) {\r\n                myListedNftCount++;\r\n            }\r\n        }\r\n\r\n        NFT[] memory nfts = new NFT[](myListedNftCount);\r\n        uint256 nftsIndex = 0;\r\n        for (uint256 i = 0; i < nftCount; i++) {\r\n            if (\r\n                _idToNFT[i + 1].seller == msg.sender && _idToNFT[i + 1].listed\r\n            ) {\r\n                nfts[nftsIndex] = _idToNFT[i + 1];\r\n                nftsIndex++;\r\n            }\r\n        }\r\n        return nfts;\r\n    }\r\n}\r\n",
  "sourcePath": "C:\\Users\\chris\\doodl\\doodl\\backend\\contracts\\Marketplace.sol",
  "compiler": {
    "name": "solc",
    "version": "0.8.17+commit.8df45f5f.Emscripten.clang"
  },
  "schemaVersion": "3.4.10",
  "updatedAt": "2022-11-15T20:38:00.015Z",
  "networkType": "ethereum",
  "devdoc": {
    "kind": "dev",
    "methods": {},
    "version": 1
  },
  "userdoc": {
    "kind": "user",
    "methods": {},
    "version": 1
  }
}