{
  "contractName": "Marketplace",
  "abi": [
    {
      "inputs": [],
      "stateMutability": "nonpayable",
      "type": "constructor"
    },
    {
      "anonymous": false,
      "inputs": [
        {
          "indexed": false,
          "internalType": "address",
          "name": "nftContract",
          "type": "address"
        },
        {
          "indexed": false,
          "internalType": "uint256",
          "name": "tokenId",
          "type": "uint256"
        },
        {
          "indexed": false,
          "internalType": "address",
          "name": "seller",
          "type": "address"
        },
        {
          "indexed": false,
          "internalType": "address",
          "name": "owner",
          "type": "address"
        },
        {
          "indexed": false,
          "internalType": "uint256",
          "name": "price",
          "type": "uint256"
        },
        {
          "indexed": false,
          "internalType": "uint256",
          "name": "voteCount",
          "type": "uint256"
        }
      ],
      "name": "NFTListed",
      "type": "event"
    },
    {
      "anonymous": false,
      "inputs": [
        {
          "indexed": false,
          "internalType": "address",
          "name": "nftContract",
          "type": "address"
        },
        {
          "indexed": false,
          "internalType": "uint256",
          "name": "tokenId",
          "type": "uint256"
        },
        {
          "indexed": false,
          "internalType": "address",
          "name": "seller",
          "type": "address"
        },
        {
          "indexed": false,
          "internalType": "address",
          "name": "owner",
          "type": "address"
        },
        {
          "indexed": false,
          "internalType": "uint256",
          "name": "price",
          "type": "uint256"
        },
        {
          "indexed": false,
          "internalType": "uint256",
          "name": "voteCount",
          "type": "uint256"
        }
      ],
      "name": "NFTSold",
      "type": "event"
    },
    {
      "inputs": [],
      "name": "LISTING_FEE",
      "outputs": [
        {
          "internalType": "uint256",
          "name": "",
          "type": "uint256"
        }
      ],
      "stateMutability": "view",
      "type": "function",
      "constant": true
    },
    {
      "inputs": [],
      "name": "currentTime",
      "outputs": [
        {
          "internalType": "uint256",
          "name": "",
          "type": "uint256"
        }
      ],
      "stateMutability": "view",
      "type": "function",
      "constant": true
    },
    {
      "inputs": [],
      "name": "prompt",
      "outputs": [
        {
          "internalType": "string",
          "name": "",
          "type": "string"
        }
      ],
      "stateMutability": "view",
      "type": "function",
      "constant": true
    },
    {
      "inputs": [],
      "name": "time",
      "outputs": [
        {
          "internalType": "uint256",
          "name": "",
          "type": "uint256"
        }
      ],
      "stateMutability": "view",
      "type": "function",
      "constant": true
    },
    {
      "inputs": [
        {
          "internalType": "uint256",
          "name": "_tokenId",
          "type": "uint256"
        }
      ],
      "name": "voteNFT",
      "outputs": [],
      "stateMutability": "payable",
      "type": "function",
      "payable": true
    },
    {
      "inputs": [
        {
          "internalType": "uint256",
          "name": "_tokenId",
          "type": "uint256"
        }
      ],
      "name": "getVoteCount",
      "outputs": [
        {
          "internalType": "uint256",
          "name": "",
          "type": "uint256"
        }
      ],
      "stateMutability": "view",
      "type": "function",
      "constant": true
    },
    {
      "inputs": [],
      "name": "getPrompt",
      "outputs": [
        {
          "internalType": "string",
          "name": "",
          "type": "string"
        }
      ],
      "stateMutability": "view",
      "type": "function",
      "constant": true
    },
    {
      "inputs": [],
      "name": "getTimeLeft",
      "outputs": [
        {
          "internalType": "uint256",
          "name": "",
          "type": "uint256"
        }
      ],
      "stateMutability": "view",
      "type": "function",
      "constant": true
    },
    {
      "inputs": [
        {
          "internalType": "address",
          "name": "_nftContract",
          "type": "address"
        },
        {
          "internalType": "uint256",
          "name": "_tokenId",
          "type": "uint256"
        },
        {
          "internalType": "uint256",
          "name": "_price",
          "type": "uint256"
        }
      ],
      "name": "listNft",
      "outputs": [],
      "stateMutability": "payable",
      "type": "function",
      "payable": true
    },
    {
      "inputs": [
        {
          "internalType": "address",
          "name": "_nftContract",
          "type": "address"
        },
        {
          "internalType": "uint256",
          "name": "_tokenId",
          "type": "uint256"
        },
        {
          "internalType": "uint256",
          "name": "_price",
          "type": "uint256"
        }
      ],
      "name": "resellNft",
      "outputs": [],
      "stateMutability": "payable",
      "type": "function",
      "payable": true
    },
    {
      "inputs": [
        {
          "internalType": "address",
          "name": "_nftContract",
          "type": "address"
        },
        {
          "internalType": "uint256",
          "name": "_tokenId",
          "type": "uint256"
        }
      ],
      "name": "buyNft",
      "outputs": [],
      "stateMutability": "payable",
      "type": "function",
      "payable": true
    },
    {
      "inputs": [],
      "name": "getListingFee",
      "outputs": [
        {
          "internalType": "uint256",
          "name": "",
          "type": "uint256"
        }
      ],
      "stateMutability": "view",
      "type": "function",
      "constant": true
    },
    {
      "inputs": [],
      "name": "getListedNfts",
      "outputs": [
        {
          "components": [
            {
              "internalType": "address",
              "name": "nftContract",
              "type": "address"
            },
            {
              "internalType": "uint256",
              "name": "tokenId",
              "type": "uint256"
            },
            {
              "internalType": "address payable",
              "name": "seller",
              "type": "address"
            },
            {
              "internalType": "address payable",
              "name": "owner",
              "type": "address"
            },
            {
              "internalType": "uint256",
              "name": "price",
              "type": "uint256"
            },
            {
              "internalType": "bool",
              "name": "listed",
              "type": "bool"
            },
            {
              "internalType": "uint256",
              "name": "voteCount",
              "type": "uint256"
            }
          ],
          "internalType": "struct Marketplace.NFT[]",
          "name": "",
          "type": "tuple[]"
        }
      ],
      "stateMutability": "view",
      "type": "function",
      "constant": true
    },
    {
      "inputs": [],
      "name": "getMyNfts",
      "outputs": [
        {
          "components": [
            {
              "internalType": "address",
              "name": "nftContract",
              "type": "address"
            },
            {
              "internalType": "uint256",
              "name": "tokenId",
              "type": "uint256"
            },
            {
              "internalType": "address payable",
              "name": "seller",
              "type": "address"
            },
            {
              "internalType": "address payable",
              "name": "owner",
              "type": "address"
            },
            {
              "internalType": "uint256",
              "name": "price",
              "type": "uint256"
            },
            {
              "internalType": "bool",
              "name": "listed",
              "type": "bool"
            },
            {
              "internalType": "uint256",
              "name": "voteCount",
              "type": "uint256"
            }
          ],
          "internalType": "struct Marketplace.NFT[]",
          "name": "",
          "type": "tuple[]"
        }
      ],
      "stateMutability": "view",
      "type": "function",
      "constant": true
    },
    {
      "inputs": [],
      "name": "getMyListedNfts",
      "outputs": [
        {
          "components": [
            {
              "internalType": "address",
              "name": "nftContract",
              "type": "address"
            },
            {
              "internalType": "uint256",
              "name": "tokenId",
              "type": "uint256"
            },
            {
              "internalType": "address payable",
              "name": "seller",
              "type": "address"
            },
            {
              "internalType": "address payable",
              "name": "owner",
              "type": "address"
            },
            {
              "internalType": "uint256",
              "name": "price",
              "type": "uint256"
            },
            {
              "internalType": "bool",
              "name": "listed",
              "type": "bool"
            },
            {
              "internalType": "uint256",
              "name": "voteCount",
              "type": "uint256"
            }
          ],
          "internalType": "struct Marketplace.NFT[]",
          "name": "",
          "type": "tuple[]"
        }
      ],
      "stateMutability": "view",
      "type": "function",
      "constant": true
    }
  ],
  "bytecode": "0x6080604052655af3107a40006003556040518060400160405280601181526020017f6f75746572737061636520636f77626f790000000000000000000000000000008152506006908162000054919062000337565b5062015180600755426008553480156200006d57600080fd5b50600160008190555033600460006101000a81548173ffffffffffffffffffffffffffffffffffffffff021916908373ffffffffffffffffffffffffffffffffffffffff1602179055506200041e565b600081519050919050565b7f4e487b7100000000000000000000000000000000000000000000000000000000600052604160045260246000fd5b7f4e487b7100000000000000000000000000000000000000000000000000000000600052602260045260246000fd5b600060028204905060018216806200013f57607f821691505b602082108103620001555762000154620000f7565b5b50919050565b60008190508160005260206000209050919050565b60006020601f8301049050919050565b600082821b905092915050565b600060088302620001bf7fffffffffffffffffffffffffffffffffffffffffffffffffffffffffffffffff8262000180565b620001cb868362000180565b95508019841693508086168417925050509392505050565b6000819050919050565b6000819050919050565b600062000218620002126200020c84620001e3565b620001ed565b620001e3565b9050919050565b6000819050919050565b6200023483620001f7565b6200024c62000243826200021f565b8484546200018d565b825550505050565b600090565b6200026362000254565b6200027081848462000229565b505050565b5b8181101562000298576200028c60008262000259565b60018101905062000276565b5050565b601f821115620002e757620002b1816200015b565b620002bc8462000170565b81016020851015620002cc578190505b620002e4620002db8562000170565b83018262000275565b50505b505050565b600082821c905092915050565b60006200030c60001984600802620002ec565b1980831691505092915050565b6000620003278383620002f9565b9150826002028217905092915050565b6200034282620000bd565b67ffffffffffffffff8111156200035e576200035d620000c8565b5b6200036a825462000126565b620003778282856200029c565b600060209050601f831160018114620003af57600084156200039a578287015190505b620003a6858262000319565b86555062000416565b601f198416620003bf866200015b565b60005b82811015620003e957848901518255600182019150602085019450602081019050620003c2565b8683101562000409578489015162000405601f891682620002f9565b8355505b6001600288020188555050505b505050505050565b6121ae806200042e6000396000f3fe6080604052600436106100e85760003560e01c80637c65d7111161008a578063c7e284b811610059578063c7e284b8146102ab578063c922b17c146102d6578063d18e81b3146102f2578063fc5be82f1461031d576100e8565b80637c65d711146101ed5780638d6cb3fb14610218578063b2c2f2e814610243578063b8fe6abe14610280576100e8565b80632b86ae38116100c65780632b86ae381461016e5780632fbc86d41461019957806334f5b624146101b55780634ddf4f8f146101d1576100e8565b8063047b07bf146100ed57806316ada547146101185780631f4cc4db14610143575b600080fd5b3480156100f957600080fd5b50610102610348565b60405161010f9190611939565b60405180910390f35b34801561012457600080fd5b5061012d610685565b60405161013a919061196a565b60405180910390f35b34801561014f57600080fd5b5061015861068b565b6040516101659190611939565b60405180910390f35b34801561017a57600080fd5b50610183610a3a565b604051610190919061196a565b60405180910390f35b6101b360048036038101906101ae91906119b6565b610a40565b005b6101cf60048036038101906101ca9190611a0f565b610a6f565b005b6101eb60048036038101906101e69190611a62565b610c47565b005b3480156101f957600080fd5b50610202610ee0565b60405161020f9190611b32565b60405180910390f35b34801561022457600080fd5b5061022d610f6e565b60405161023a9190611939565b60405180910390f35b34801561024f57600080fd5b5061026a600480360381019061026591906119b6565b6111e0565b604051610277919061196a565b60405180910390f35b34801561028c57600080fd5b50610295611200565b6040516102a2919061196a565b60405180910390f35b3480156102b757600080fd5b506102c061120a565b6040516102cd919061196a565b60405180910390f35b6102f060048036038101906102eb9190611a0f565b611231565b005b3480156102fe57600080fd5b50610307611574565b604051610314919061196a565b60405180910390f35b34801561032957600080fd5b5061033261157a565b60405161033f9190611b32565b60405180910390f35b60606000610356600261160c565b90506000805b828110156103fb573373ffffffffffffffffffffffffffffffffffffffff166005600060018461038c9190611b83565b815260200190815260200160002060030160009054906101000a900473ffffffffffffffffffffffffffffffffffffffff1673ffffffffffffffffffffffffffffffffffffffff16036103e85781806103e490611bb7565b9250505b80806103f390611bb7565b91505061035c565b5060008167ffffffffffffffff81111561041857610417611bff565b5b60405190808252806020026020018201604052801561045157816020015b61043e6116e5565b8152602001906001900390816104365790505b5090506000805b8481101561067a573373ffffffffffffffffffffffffffffffffffffffff16600560006001846104889190611b83565b815260200190815260200160002060030160009054906101000a900473ffffffffffffffffffffffffffffffffffffffff1673ffffffffffffffffffffffffffffffffffffffff160361066757600560006001836104e69190611b83565b81526020019081526020016000206040518060e00160405290816000820160009054906101000a900473ffffffffffffffffffffffffffffffffffffffff1673ffffffffffffffffffffffffffffffffffffffff1673ffffffffffffffffffffffffffffffffffffffff168152602001600182015481526020016002820160009054906101000a900473ffffffffffffffffffffffffffffffffffffffff1673ffffffffffffffffffffffffffffffffffffffff1673ffffffffffffffffffffffffffffffffffffffff1681526020016003820160009054906101000a900473ffffffffffffffffffffffffffffffffffffffff1673ffffffffffffffffffffffffffffffffffffffff1673ffffffffffffffffffffffffffffffffffffffff168152602001600482015481526020016005820160009054906101000a900460ff1615151515815260200160068201548152505083838151811061064d5761064c611c2e565b5b6020026020010181905250818061066390611bb7565b9250505b808061067290611bb7565b915050610458565b508194505050505090565b60075481565b60606000610699600261160c565b90506000805b82811015610777573373ffffffffffffffffffffffffffffffffffffffff16600560006001846106cf9190611b83565b815260200190815260200160002060020160009054906101000a900473ffffffffffffffffffffffffffffffffffffffff1673ffffffffffffffffffffffffffffffffffffffff161480156107505750600560006001836107309190611b83565b815260200190815260200160002060050160009054906101000a900460ff165b1561076457818061076090611bb7565b9250505b808061076f90611bb7565b91505061069f565b5060008167ffffffffffffffff81111561079457610793611bff565b5b6040519080825280602002602001820160405280156107cd57816020015b6107ba6116e5565b8152602001906001900390816107b25790505b5090506000805b84811015610a2f573373ffffffffffffffffffffffffffffffffffffffff16600560006001846108049190611b83565b815260200190815260200160002060020160009054906101000a900473ffffffffffffffffffffffffffffffffffffffff1673ffffffffffffffffffffffffffffffffffffffff161480156108855750600560006001836108659190611b83565b815260200190815260200160002060050160009054906101000a900460ff165b15610a1c576005600060018361089b9190611b83565b81526020019081526020016000206040518060e00160405290816000820160009054906101000a900473ffffffffffffffffffffffffffffffffffffffff1673ffffffffffffffffffffffffffffffffffffffff1673ffffffffffffffffffffffffffffffffffffffff168152602001600182015481526020016002820160009054906101000a900473ffffffffffffffffffffffffffffffffffffffff1673ffffffffffffffffffffffffffffffffffffffff1673ffffffffffffffffffffffffffffffffffffffff1681526020016003820160009054906101000a900473ffffffffffffffffffffffffffffffffffffffff1673ffffffffffffffffffffffffffffffffffffffff1673ffffffffffffffffffffffffffffffffffffffff168152602001600482015481526020016005820160009054906101000a900460ff16151515158152602001600682015481525050838381518110610a0257610a01611c2e565b5b60200260200101819052508180610a1890611bb7565b9250505b8080610a2790611bb7565b9150506107d4565b508194505050505090565b60035481565b600560008281526020019081526020016000206006016000815480929190610a6790611bb7565b919050555050565b610a7761161a565b6003543414610abb576040517f08c379a0000000000000000000000000000000000000000000000000000000008152600401610ab290611ca9565b60405180910390fd5b8273ffffffffffffffffffffffffffffffffffffffff166323b872dd3330856040518463ffffffff1660e01b8152600401610af893929190611cd8565b600060405180830381600087803b158015610b1257600080fd5b505af1158015610b26573d6000803e3d6000fd5b505050506000600560008481526020019081526020016000209050338160020160006101000a81548173ffffffffffffffffffffffffffffffffffffffff021916908373ffffffffffffffffffffffffffffffffffffffff160217905550308160030160006101000a81548173ffffffffffffffffffffffffffffffffffffffff021916908373ffffffffffffffffffffffffffffffffffffffff16021790555060018160050160006101000a81548160ff021916908315150217905550818160040181905550610bf76001611669565b7fc832d0dcd7b856cbe96d21951bfd27a151474492114ad271531ad34f7cfd645384843330866000604051610c3196959493929190611d54565b60405180910390a150610c426116c5565b505050565b610c4f61161a565b60006005600083815260200190815260200160002090508060040154341015610cad576040517f08c379a0000000000000000000000000000000000000000000000000000000008152600401610ca490611e27565b60405180910390fd5b60003390508160020160009054906101000a900473ffffffffffffffffffffffffffffffffffffffff1673ffffffffffffffffffffffffffffffffffffffff166108fc349081150290604051600060405180830381858888f19350505050158015610d1c573d6000803e3d6000fd5b508373ffffffffffffffffffffffffffffffffffffffff166323b872dd308385600101546040518463ffffffff1660e01b8152600401610d5e93929190611e9c565b600060405180830381600087803b158015610d7857600080fd5b505af1158015610d8c573d6000803e3d6000fd5b50505050600460009054906101000a900473ffffffffffffffffffffffffffffffffffffffff1673ffffffffffffffffffffffffffffffffffffffff166108fc6003549081150290604051600060405180830381858888f19350505050158015610dfa573d6000803e3d6000fd5b50808260030160006101000a81548173ffffffffffffffffffffffffffffffffffffffff021916908373ffffffffffffffffffffffffffffffffffffffff16021790555060008260050160006101000a81548160ff021916908315150217905550610e6560016116cf565b7f85d6aff492354cbf7fdd7efb2bd8bce059037aef73b968f95d32a417598cbff98483600101548460020160009054906101000a900473ffffffffffffffffffffffffffffffffffffffff1684348760060154604051610eca96959493929190611ed3565b60405180910390a15050610edc6116c5565b5050565b60068054610eed90611f63565b80601f0160208091040260200160405190810160405280929190818152602001828054610f1990611f63565b8015610f665780601f10610f3b57610100808354040283529160200191610f66565b820191906000526020600020905b815481529060010190602001808311610f4957829003601f168201915b505050505081565b60606000610f7c600261160c565b90506000610f8a600161160c565b82610f959190611f94565b905060008167ffffffffffffffff811115610fb357610fb2611bff565b5b604051908082528060200260200182016040528015610fec57816020015b610fd96116e5565b815260200190600190039081610fd15790505b5090506000805b848110156111d5576005600060018361100c9190611b83565b815260200190815260200160002060050160009054906101000a900460ff16156111c257600560006001836110419190611b83565b81526020019081526020016000206040518060e00160405290816000820160009054906101000a900473ffffffffffffffffffffffffffffffffffffffff1673ffffffffffffffffffffffffffffffffffffffff1673ffffffffffffffffffffffffffffffffffffffff168152602001600182015481526020016002820160009054906101000a900473ffffffffffffffffffffffffffffffffffffffff1673ffffffffffffffffffffffffffffffffffffffff1673ffffffffffffffffffffffffffffffffffffffff1681526020016003820160009054906101000a900473ffffffffffffffffffffffffffffffffffffffff1673ffffffffffffffffffffffffffffffffffffffff1673ffffffffffffffffffffffffffffffffffffffff168152602001600482015481526020016005820160009054906101000a900460ff161515151581526020016006820154815250508383815181106111a8576111a7611c2e565b5b602002602001018190525081806111be90611bb7565b9250505b80806111cd90611bb7565b915050610ff3565b508194505050505090565b600060056000838152602001908152602001600020600601549050919050565b6000600354905090565b6000806008544261121b9190611f94565b6007546112289190611f94565b90508091505090565b61123961161a565b6000811161127c576040517f08c379a000000000000000000000000000000000000000000000000000000000815260040161127390612014565b60405180910390fd5b60035434146112c0576040517f08c379a00000000000000000000000000000000000000000000000000000000081526004016112b790611ca9565b60405180910390fd5b60006112ca61120a565b1161130a576040517f08c379a000000000000000000000000000000000000000000000000000000000815260040161130190612080565b60405180910390fd5b8273ffffffffffffffffffffffffffffffffffffffff166323b872dd3330856040518463ffffffff1660e01b815260040161134793929190611cd8565b600060405180830381600087803b15801561136157600080fd5b505af1158015611375573d6000803e3d6000fd5b5050505061138360026116cf565b6040518060e001604052808473ffffffffffffffffffffffffffffffffffffffff1681526020018381526020013373ffffffffffffffffffffffffffffffffffffffff1681526020013073ffffffffffffffffffffffffffffffffffffffff16815260200182815260200160011515815260200160008152506005600084815260200190815260200160002060008201518160000160006101000a81548173ffffffffffffffffffffffffffffffffffffffff021916908373ffffffffffffffffffffffffffffffffffffffff1602179055506020820151816001015560408201518160020160006101000a81548173ffffffffffffffffffffffffffffffffffffffff021916908373ffffffffffffffffffffffffffffffffffffffff16021790555060608201518160030160006101000a81548173ffffffffffffffffffffffffffffffffffffffff021916908373ffffffffffffffffffffffffffffffffffffffff1602179055506080820151816004015560a08201518160050160006101000a81548160ff02191690831515021790555060c082015181600601559050507fc832d0dcd7b856cbe96d21951bfd27a151474492114ad271531ad34f7cfd64538383333085600060405161155f96959493929190611d54565b60405180910390a161156f6116c5565b505050565b60085481565b60606006805461158990611f63565b80601f01602080910402602001604051908101604052809291908181526020018280546115b590611f63565b80156116025780601f106115d757610100808354040283529160200191611602565b820191906000526020600020905b8154815290600101906020018083116115e557829003601f168201915b5050505050905090565b600081600001549050919050565b60026000540361165f576040517f08c379a0000000000000000000000000000000000000000000000000000000008152600401611656906120ec565b60405180910390fd5b6002600081905550565b600081600001549050600081116116b5576040517f08c379a00000000000000000000000000000000000000000000000000000000081526004016116ac90612158565b60405180910390fd5b6001810382600001819055505050565b6001600081905550565b6001816000016000828254019250508190555050565b6040518060e00160405280600073ffffffffffffffffffffffffffffffffffffffff16815260200160008152602001600073ffffffffffffffffffffffffffffffffffffffff168152602001600073ffffffffffffffffffffffffffffffffffffffff16815260200160008152602001600015158152602001600081525090565b600081519050919050565b600082825260208201905092915050565b6000819050602082019050919050565b600073ffffffffffffffffffffffffffffffffffffffff82169050919050565b60006117bd82611792565b9050919050565b6117cd816117b2565b82525050565b6000819050919050565b6117e6816117d3565b82525050565b60006117f782611792565b9050919050565b611807816117ec565b82525050565b60008115159050919050565b6118228161180d565b82525050565b60e08201600082015161183e60008501826117c4565b50602082015161185160208501826117dd565b50604082015161186460408501826117fe565b50606082015161187760608501826117fe565b50608082015161188a60808501826117dd565b5060a082015161189d60a0850182611819565b5060c08201516118b060c08501826117dd565b50505050565b60006118c28383611828565b60e08301905092915050565b6000602082019050919050565b60006118e682611766565b6118f08185611771565b93506118fb83611782565b8060005b8381101561192c57815161191388826118b6565b975061191e836118ce565b9250506001810190506118ff565b5085935050505092915050565b6000602082019050818103600083015261195381846118db565b905092915050565b611964816117d3565b82525050565b600060208201905061197f600083018461195b565b92915050565b600080fd5b611993816117d3565b811461199e57600080fd5b50565b6000813590506119b08161198a565b92915050565b6000602082840312156119cc576119cb611985565b5b60006119da848285016119a1565b91505092915050565b6119ec816117b2565b81146119f757600080fd5b50565b600081359050611a09816119e3565b92915050565b600080600060608486031215611a2857611a27611985565b5b6000611a36868287016119fa565b9350506020611a47868287016119a1565b9250506040611a58868287016119a1565b9150509250925092565b60008060408385031215611a7957611a78611985565b5b6000611a87858286016119fa565b9250506020611a98858286016119a1565b9150509250929050565b600081519050919050565b600082825260208201905092915050565b60005b83811015611adc578082015181840152602081019050611ac1565b60008484015250505050565b6000601f19601f8301169050919050565b6000611b0482611aa2565b611b0e8185611aad565b9350611b1e818560208601611abe565b611b2781611ae8565b840191505092915050565b60006020820190508181036000830152611b4c8184611af9565b905092915050565b7f4e487b7100000000000000000000000000000000000000000000000000000000600052601160045260246000fd5b6000611b8e826117d3565b9150611b99836117d3565b9250828201905080821115611bb157611bb0611b54565b5b92915050565b6000611bc2826117d3565b91507fffffffffffffffffffffffffffffffffffffffffffffffffffffffffffffffff8203611bf457611bf3611b54565b5b600182019050919050565b7f4e487b7100000000000000000000000000000000000000000000000000000000600052604160045260246000fd5b7f4e487b7100000000000000000000000000000000000000000000000000000000600052603260045260246000fd5b7f4e6f7420656e6f75676820657468657220666f72206c697374696e6720666565600082015250565b6000611c93602083611aad565b9150611c9e82611c5d565b602082019050919050565b60006020820190508181036000830152611cc281611c86565b9050919050565b611cd2816117b2565b82525050565b6000606082019050611ced6000830186611cc9565b611cfa6020830185611cc9565b611d07604083018461195b565b949350505050565b6000819050919050565b6000819050919050565b6000611d3e611d39611d3484611d0f565b611d19565b6117d3565b9050919050565b611d4e81611d23565b82525050565b600060c082019050611d696000830189611cc9565b611d76602083018861195b565b611d836040830187611cc9565b611d906060830186611cc9565b611d9d608083018561195b565b611daa60a0830184611d45565b979650505050505050565b7f4e6f7420656e6f75676820657468657220746f20636f7665722061736b696e6760008201527f2070726963650000000000000000000000000000000000000000000000000000602082015250565b6000611e11602683611aad565b9150611e1c82611db5565b604082019050919050565b60006020820190508181036000830152611e4081611e04565b9050919050565b6000611e62611e5d611e5884611792565b611d19565b611792565b9050919050565b6000611e7482611e47565b9050919050565b6000611e8682611e69565b9050919050565b611e9681611e7b565b82525050565b6000606082019050611eb16000830186611cc9565b611ebe6020830185611e8d565b611ecb604083018461195b565b949350505050565b600060c082019050611ee86000830189611cc9565b611ef5602083018861195b565b611f026040830187611e8d565b611f0f6060830186611e8d565b611f1c608083018561195b565b611f2960a083018461195b565b979650505050505050565b7f4e487b7100000000000000000000000000000000000000000000000000000000600052602260045260246000fd5b60006002820490506001821680611f7b57607f821691505b602082108103611f8e57611f8d611f34565b5b50919050565b6000611f9f826117d3565b9150611faa836117d3565b9250828203905081811115611fc257611fc1611b54565b5b92915050565b7f5072696365206d757374206265206174206c6561737420312077656900000000600082015250565b6000611ffe601c83611aad565b915061200982611fc8565b602082019050919050565b6000602082019050818103600083015261202d81611ff1565b9050919050565b7f54696d6520686173206578706972656400000000000000000000000000000000600082015250565b600061206a601083611aad565b915061207582612034565b602082019050919050565b600060208201905081810360008301526120998161205d565b9050919050565b7f5265656e7472616e637947756172643a207265656e7472616e742063616c6c00600082015250565b60006120d6601f83611aad565b91506120e1826120a0565b602082019050919050565b60006020820190508181036000830152612105816120c9565b9050919050565b7f436f756e7465723a2064656372656d656e74206f766572666c6f770000000000600082015250565b6000612142601b83611aad565b915061214d8261210c565b602082019050919050565b6000602082019050818103600083015261217181612135565b905091905056fea2646970667358221220d597a60b83639dc80062b8be6761c2a365cee92d3f1ec34dd51fecdf04be682e64736f6c63430008110033",
  "immutableReferences": {},
  "source": "// SPDX-License-Identifier: MIT\r\npragma solidity ^0.8.13;\r\n\r\nimport \"@openzeppelin/contracts/utils/Counters.sol\";\r\nimport \"@openzeppelin/contracts/token/ERC721/ERC721.sol\";\r\nimport \"@openzeppelin/contracts/security/ReentrancyGuard.sol\";\r\n\r\ncontract Marketplace is ReentrancyGuard {\r\n    using Counters for Counters.Counter;\r\n    Counters.Counter private _nftsSold;\r\n    Counters.Counter private _nftCount;\r\n    uint256 public LISTING_FEE = 0.0001 ether;\r\n    address payable private _marketOwner;\r\n    mapping(uint256 => NFT) private _idToNFT;\r\n\r\n    string public prompt = \"outerspace cowboy\";\r\n    // public time of 0.001 day\r\n    uint256 public time = 1 days;\r\n    uint256 public currentTime = block.timestamp;\r\n\r\n    struct NFT {\r\n        address nftContract;\r\n        uint256 tokenId;\r\n        address payable seller;\r\n        address payable owner;\r\n        uint256 price;\r\n        bool listed;\r\n        uint256 voteCount;\r\n    }\r\n    event NFTListed(\r\n        address nftContract,\r\n        uint256 tokenId,\r\n        address seller,\r\n        address owner,\r\n        uint256 price,\r\n        uint256 voteCount\r\n    );\r\n    event NFTSold(\r\n        address nftContract,\r\n        uint256 tokenId,\r\n        address seller,\r\n        address owner,\r\n        uint256 price,\r\n        uint256 voteCount\r\n    );\r\n\r\n    constructor() {\r\n        _marketOwner = payable(msg.sender);\r\n    }\r\n\r\n    function voteNFT(uint256 _tokenId) public payable {\r\n        //  increment vote count for NFT\r\n        _idToNFT[_tokenId].voteCount++;\r\n    }\r\n\r\n    function getVoteCount(uint256 _tokenId) public view returns (uint256) {\r\n        return _idToNFT[_tokenId].voteCount;\r\n    }\r\n\r\n    function getPrompt() public view returns (string memory) {\r\n        return prompt;\r\n    }\r\n\r\n    function getTimeLeft() public view returns (uint256) {\r\n        // do the math to find the time between the current time and the time\r\n        uint256 timeLeft = time - (block.timestamp - currentTime);\r\n        return timeLeft;\r\n    }\r\n\r\n    // List the NFT on the marketplace\r\n    function listNft(\r\n        address _nftContract,\r\n        uint256 _tokenId,\r\n        uint256 _price\r\n    ) public payable nonReentrant {\r\n        require(_price > 0, \"Price must be at least 1 wei\");\r\n        require(msg.value == LISTING_FEE, \"Not enough ether for listing fee\");\r\n        // require that there is time remaining\r\n        require(getTimeLeft() > 0, \"Time has expired\");\r\n\r\n        IERC721(_nftContract).transferFrom(msg.sender, address(this), _tokenId);\r\n\r\n        _nftCount.increment();\r\n\r\n        _idToNFT[_tokenId] = NFT(\r\n            _nftContract,\r\n            _tokenId,\r\n            payable(msg.sender),\r\n            payable(address(this)),\r\n            _price,\r\n            true,\r\n            0\r\n        );\r\n\r\n        emit NFTListed(\r\n            _nftContract,\r\n            _tokenId,\r\n            msg.sender,\r\n            address(this),\r\n            _price,\r\n            0\r\n        );\r\n    }\r\n\r\n    // Resell an NFT purchased from the marketplace\r\n    function resellNft(\r\n        address _nftContract,\r\n        uint256 _tokenId,\r\n        uint256 _price\r\n    ) public payable nonReentrant {\r\n        require(msg.value == LISTING_FEE, \"Not enough ether for listing fee\");\r\n\r\n        IERC721(_nftContract).transferFrom(msg.sender, address(this), _tokenId);\r\n\r\n        NFT storage nft = _idToNFT[_tokenId];\r\n        nft.seller = payable(msg.sender);\r\n        nft.owner = payable(address(this));\r\n        nft.listed = true;\r\n        nft.price = _price;\r\n\r\n        _nftsSold.decrement();\r\n        emit NFTListed(\r\n            _nftContract,\r\n            _tokenId,\r\n            msg.sender,\r\n            address(this),\r\n            _price,\r\n            0\r\n        );\r\n    }\r\n\r\n    // Buy an NFT\r\n    function buyNft(address _nftContract, uint256 _tokenId)\r\n        public\r\n        payable\r\n        nonReentrant\r\n    {\r\n        NFT storage nft = _idToNFT[_tokenId];\r\n        require(\r\n            msg.value >= nft.price,\r\n            \"Not enough ether to cover asking price\"\r\n        );\r\n\r\n        address payable buyer = payable(msg.sender);\r\n        payable(nft.seller).transfer(msg.value);\r\n        IERC721(_nftContract).transferFrom(address(this), buyer, nft.tokenId);\r\n        _marketOwner.transfer(LISTING_FEE);\r\n        nft.owner = buyer;\r\n        nft.listed = false;\r\n\r\n        _nftsSold.increment();\r\n        emit NFTSold(\r\n            _nftContract,\r\n            nft.tokenId,\r\n            nft.seller,\r\n            buyer,\r\n            msg.value,\r\n            nft.voteCount\r\n        );\r\n    }\r\n\r\n    function getListingFee() public view returns (uint256) {\r\n        return LISTING_FEE;\r\n    }\r\n\r\n    function getListedNfts() public view returns (NFT[] memory) {\r\n        uint256 nftCount = _nftCount.current();\r\n        uint256 unsoldNftsCount = nftCount - _nftsSold.current();\r\n\r\n        NFT[] memory nfts = new NFT[](unsoldNftsCount);\r\n        uint256 nftsIndex = 0;\r\n        for (uint256 i = 0; i < nftCount; i++) {\r\n            if (_idToNFT[i + 1].listed) {\r\n                nfts[nftsIndex] = _idToNFT[i + 1];\r\n                nftsIndex++;\r\n            }\r\n        }\r\n        return nfts;\r\n    }\r\n\r\n    function getMyNfts() public view returns (NFT[] memory) {\r\n        uint256 nftCount = _nftCount.current();\r\n        uint256 myNftCount = 0;\r\n        for (uint256 i = 0; i < nftCount; i++) {\r\n            if (_idToNFT[i + 1].owner == msg.sender) {\r\n                myNftCount++;\r\n            }\r\n        }\r\n\r\n        NFT[] memory nfts = new NFT[](myNftCount);\r\n        uint256 nftsIndex = 0;\r\n        for (uint256 i = 0; i < nftCount; i++) {\r\n            if (_idToNFT[i + 1].owner == msg.sender) {\r\n                nfts[nftsIndex] = _idToNFT[i + 1];\r\n                nftsIndex++;\r\n            }\r\n        }\r\n        return nfts;\r\n    }\r\n\r\n    function getMyListedNfts() public view returns (NFT[] memory) {\r\n        uint256 nftCount = _nftCount.current();\r\n        uint256 myListedNftCount = 0;\r\n        for (uint256 i = 0; i < nftCount; i++) {\r\n            if (\r\n                _idToNFT[i + 1].seller == msg.sender && _idToNFT[i + 1].listed\r\n            ) {\r\n                myListedNftCount++;\r\n            }\r\n        }\r\n\r\n        NFT[] memory nfts = new NFT[](myListedNftCount);\r\n        uint256 nftsIndex = 0;\r\n        for (uint256 i = 0; i < nftCount; i++) {\r\n            if (\r\n                _idToNFT[i + 1].seller == msg.sender && _idToNFT[i + 1].listed\r\n            ) {\r\n                nfts[nftsIndex] = _idToNFT[i + 1];\r\n                nftsIndex++;\r\n            }\r\n        }\r\n        return nfts;\r\n    }\r\n}\r\n",
  "sourcePath": "C:\\Users\\chris\\doodl\\doodl\\backend\\contracts\\Marketplace.sol",
  "compiler": {
    "name": "solc",
    "version": "0.8.17+commit.8df45f5f.Emscripten.clang"
  },
  "schemaVersion": "3.4.10",
  "updatedAt": "2022-11-22T21:47:20.322Z",
  "networkType": "ethereum",
  "devdoc": {
    "kind": "dev",
    "methods": {},
    "version": 1
  },
  "userdoc": {
    "kind": "user",
    "methods": {},
    "version": 1
  }
}